:0400000048EF00F0D5
:0600080041826CED24F0C2
:100018004180D8CF1AF0E8CF1BF0E0CF1CF0F3CF27
:100028001DF0F4CF1EF0F29EF2A41DEF00F01FEFBA
:1000380000F021EF00F0D8EC20F09EA226EF00F0AF
:1000480028EF00F02AEF00F086EC1DF09EAA2FEFB3
:1000580000F031EF00F03BEF00F09DAA36EF00F022
:1000680038EF00F03BEF00F0AECF39F09E9AF28EF9
:100078001EC0F4FF1DC0F3FF1CC0E0FF1BC0E8FF5B
:0C0088001AC0D8FF4190100051EF21F089
:1008000000202530316420503A2530316420423AAE
:1008100025322E3166202530346420463A25303288
:1008200064204E3A25303275204C3A257520483ADE
:10083000257520463A257500696E66006E616E006A
:030840000D0000A8
:10084400000E0001DA6FB2C0DBF0B3C0DCF0B4C05C
:10085400DDF0B5C0DEF0DEBF34EF04F032EF04F0BB
:1008640048EF04F0010EDA6FDBC01FF0DCC020F0AB
:10087400DDC021F0DEC022F09FEC23F01FC0DBF0CE
:1008840020C0DCF021C0DDF022C0DEF0000E00014B
:10089400E06F000EDF6F24C0CEF025C0CFF0DA5138
:1008A400D8B457EF04F059EF04F06DEF04F0DA51C7
:1008B400D8A45FEF04F061EF04F067EF04F0000EDA
:1008C400C06F2B0EBF6F6BEF04F0000EC06F2D0EC8
:1008D400BF6FBFC0DAF0DBC01FF0DCC020F0DDC0AA
:1008E40021F0DEC022F006EC1DF01F042010D8A475
:1008F4007EEF04F080EF04F0B3EF04F00001DA516E
:10090400D8B487EF04F089EF04F092EF04F0DAC072
:1009140078F1CE07D8A0CF07000EE06F010EDF6F8D
:10092400780EDF251F6E010EE021206E380E216E39
:10093400080E226E40EC23F00001FD0ECE27FF0EC0
:10094400CF23B0C06CF0B1C06DF0780E6E6F010EA5
:100954006F6FCEC070F0CFC071F0D8EC1FF057EFBE
:1009640009F0DBC01FF0DCC020F0DDC021F0DEC0E8
:1009740022F006EC1DF01F502010D8A4C4EF04F0A0
:10098400C6EF04F0E6EF04F00001DA51D8B4CDEF7D
:1009940004F0CFEF04F0D8EF04F0DAC078F1CE071A
:1009A400D8A0CF07000EE06F010EDF6F780EDF25B1
:1009B4001F6E010EE021206E3C0E216E080E226E89
:1009C40040EC23F09EEF04F0000E0001E16F000EF6
:1009D400E26F800EE36F3F0EE46F000EC96F000EEE
:1009E400C86FDBC060F0DCC061F0DDC062F0DEC067
:1009F40063F0000E646F000E656F000E666F000EEC
:100A0400676F2FEC20F00001D8B00BEF05F00DEF6D
:100A140005F0EDEF05F01AEF05F0CAC0E1F0CBC028
:100A2400E2F0CCC0E3F0CDC0E4F00001C84BC92B28
:100A3400E1C06AF0E2C06BF0E3C06CF0E4C06DF0BA
:100A4400000E6E6F000E6F6F200E706F410E716F8F
:100A54001BEC12F06AC0CAF06BC0CBF06CC0CCF0D7
:100A64006DC0CDF00001CA51DB5D1F6ECB51DC5966
:100A7400206ECC51DD59216ECD51DE59226E87ECAA
:100A840021F022BE51EF05F022502110201009E17F
:100A9400020E1F5CD8A051EF05F053EF05F00FEFE5
:100AA40005F0CAC083F0CBC084F0CCC085F0CDC0C3
:100AB40086F0DBC087F0DCC088F0DDC089F0DEC0E2
:100AC4008AF000EC1CF00001D8A06BEF05F06DEF8C
:100AD40005F00FEF05F0E151DB5D1F6EE251DC59CB
:100AE400206EE351DD59216EE451DE59226E87EC0C
:100AF40021F022BE8BEF05F022502110201007E1D7
:100B0400020E1F5CD8B089EF05F08BEF05F0D3EF30
:100B140005F0E1C0DBF0E2C0DCF0E3C0DDF0E4C0EE
:100B2400DEF0EDEF05F0E1C083F0E2C084F0E3C055
:100B340085F0E4C086F0000E876F000E886F200EEB
:100B4400896F410E8A6F46EC16F083C0E1F084C0D1
:100B5400E2F085C0E3F086C0E4F00001C807D8A045
:100B6400C907E151DB5D1F6EE251DC59206EE35190
:100B7400DD59216EE451DE59226E87EC21F022BE4C
:100B8400D1EF05F022502110201007E1020E1F5C66
:100B9400D8B0CFEF05F0D1EF05F0D3EF05F08BEF30
:100BA40005F0DBC083F0DCC084F0DDC085F0DEC07E
:100BB40086F0E1C087F0E2C088F0E3C089F0E4C0C9
:100BC4008AF000EC1CF00001D8A0EBEF05F0EDEF8B
:100BD40005F095EF05F0B6C0C2F0C2C0C3F027BE61
:100BE400F6EF05F0F8EF05F0FEEF05F026C0BBF0D8
:100BF40027C0BCF003EF06F0000E0001BC6F060E28
:100C0400BB6FBBC0C6F0BCC0C7F00001C64BC72B4E
:100C1400660EC319D8A411EF06F013EF06F033EFF4
:100C240006F0C9BF1AEF06F018EF06F026EF06F03B
:100C3400000EE16F000EE26F800EE36F3F0EE46F73
:100C4400000EC96F000EC86F670EC219D8B42DEF1D
:100C540006F02FEF06F033EF06F0C851C627C9514E
:100C6400C723000ED96F000ED86FDBC0D0F0DCC0F4
:100C7400D1F0DDC0D2F0DEC0D3F0E1C0CAF0E2C0F2
:100C8400CBF0E3C0CCF0E4C0CDF0C5EF06F0D0C0AB
:100C940083F0D1C084F0D2C085F0D3C086F0E1C027
:100CA40087F0E2C088F0E3C089F0E4C08AF046EC43
:100CB40016F083C09CF084C09DF085C09EF086C071
:100CC4009FF014EC18F09CC0D4F09DC0D5F09EC0E9
:100CD400D6F09FC0D7F0D4C09CF0D5C09DF0D6C04C
:100CE4009EF0D7C09FF07CEC1BF09CC0C4F09DC06C
:100CF400C5F0D0C083F0D1C084F0D2C085F0D3C099
:100D040086F0D4C06EF0D5C06FF0D6C070F0D7C0F6
:100D140071F0E1C06AF0E2C06BF0E3C06CF0E4C0D3
:100D24006DF01BEC12F06AC087F06BC088F06CC0E9
:100D340089F06DC08AF0F8EC22F083C0D0F084C052
:100D4400D1F085C0D2F086C0D3F0E1C083F0E2C018
:100D540084F0E3C085F0E4C086F0000E0001876FE4
:100D6400000E886F200E896F410E8A6F46EC16F0D4
:100D740083C0E1F084C0E2F085C0E3F086C0E4F013
:100D84000001D84BD92BC651D85DD951800AB76F11
:100D9400C751800AB759D8A0D2EF06F0D4EF06F0B5
:100DA40049EF06F0E1C06AF0E2C06BF0E3C06CF01A
:100DB400E4C06DF0000E6E6F000E6F6FA00E706FCA
:100DC400400E716F1BEC12F06AC0D4F06BC0D5F00A
:100DD4006CC0D6F06DC0D7F0D0C083F0D1C084F021
:100DE400D2C085F0D3C086F0D4C087F0D5C088F0D7
:100DF400D6C089F0D7C08AF000EC1CF00001D8B04E
:100E040006EF07F008EF07F012EF07F0000ED46FBB
:100E1400000ED56F000ED66F000ED76F3BEF07F0B4
:100E2400D0C060F0D1C061F0D2C062F0D3C063F032
:100E3400D4C064F0D5C065F0D6C066F0D7C067F002
:100E44002FEC20F00001D8A02AEF07F02CEF07F0D8
:100E54003BEF07F0C4B131EF07F033EF07F03BEF9E
:100E640007F0000ED46F000ED56F000ED66F000E83
:100E7400D76FDBC060F0DCC061F0DDC062F0DEC0C3
:100E840063F0D4C064F0D5C065F0D6C066F0D7C0B6
:100E940067F08BEC0DF060C0D0F061C0D1F062C09F
:100EA400D2F063C0D3F0D0C083F0D1C084F0D2C0FC
:100EB40085F0D3C086F0000E00016E6F000E6F6FD8
:100EC400200E706F410E716FCAC06AF0CBC06BF018
:100ED400CCC06CF0CDC06DF01BEC12F06AC087F092
:100EE4006BC088F06CC089F06DC08AF000EC1CF017
:100EF4000001D8A080EF07F082EF07F0AAEF07F017
:100F0400C84BC92BCAC06AF0CBC06BF0CCC06CF024
:100F1400CDC06DF0000E6E6F000E6F6F200E706FFF
:100F2400410E716F1BEC12F06AC0CAF06BC0CBF0BB
:100F34006CC0CCF06DC0CDF0660E0001C319D8A40E
:100F4400A6EF07F0A8EF07F0AAEF07F0C64BC72BF0
:100F5400CAC0E1F0CBC0E2F0CCC0E3F0CDC0E4F015
:100F6400C8C0B9F0C9C0BAF0000EC16F000EBE6FA0
:100F7400000EBD6F000ED96F000ED86FA8EF08F0F9
:100F8400D0C083F0D1C084F0D2C085F0D3C086F045
:100F9400E1C087F0E2C088F0E3C089F0E4C08AF0E1
:100FA40046EC16F083C09CF084C09DF085C09EF092
:100FB40086C09FF014EC18F09CC0D4F09DC0D5F00E
:100FC4009EC0D6F09FC0D7F0D4C09CF0D5C09DF091
:100FD400D6C09EF0D7C09FF07CEC1BF000019DBFF3
:100FE400FFEF07F09D5107E10A0E9C5DD8B0FDEFBD
:100FF40007F0FFEF07F00FEF08F0D4C09CF0D5C066
:101004009DF0D6C09EF0D7C09FF07CEC1BF09CC036
:10101400C4F09DC0C5F013EF08F0000EC56F090EB3
:10102400C46F0001C151D8A41AEF08F01CEF08F0F6
:1010340044EF08F0BABF23EF08F021EF08F044EFC3
:1010440008F0780EDF25D96E010EE021DA6E2E0E3F
:10105400DF6EDF4BE02BCE07D8A0CF07010EC16FA8
:1010640044EF08F0780EDF25D96E010EE021DA6E28
:10107400300EDF6EDF4BE02BCE07D8A0CF07BD07C5
:10108400D8A0BE07BD51BE11D8A44BEF08F04DEF58
:1010940008F034EF08F0780EDF25D96E010EE02158
:1010A400DA6EC451300FDF6EDF4BE02BCE07D8A0D1
:1010B400CF07D0C083F0D1C084F0D2C085F0D3C0B4
:1010C40086F0D4C06EF0D5C06FF0D6C070F0D7C033
:1010D40071F0E1C06AF0E2C06BF0E3C06CF0E4C010
:1010E4006DF01BEC12F06AC087F06BC088F06CC026
:1010F40089F06DC08AF0F8EC22F083C0D0F084C08F
:10110400D1F085C0D2F086C0D3F0E1C083F0E2C054
:1011140084F0E3C085F0E4C086F0000E0001876F20
:10112400000E886F200E896F410E8A6F46EC16F010
:1011340083C0E1F084C0E2F085C0E3F086C0E4F04F
:101144000001B907D8A0BA07D84BD92BC651D85D2E
:10115400D951800AB76FC751800AB759D8B0B5EFD3
:1011640008F0B7EF08F0C5EF08F0E0BFC3EF08F0F0
:10117400E05109E14B0EDF5DD8A0C3EF08F0C5EFE5
:1011840008F0C2EF07F0000ED96F4F0ED86F780E3B
:10119400D825D96E010ED921DA6EDF6A780EB76FC1
:1011A400010EB86FDF51B75FE051B85BD851B72576
:1011B400606FD951B821616F780E626F010E636F51
:1011C400DFC064F0E0C065F0A7EC22F00001DF515D
:1011D400D85DDF6FE051D959E06FDA51D8A4F5EF4B
:1011E40008F0F8EF08F0010EF9EF08F0000ED86FE0
:1011F400D96B36A200EF09F002EF09F030EF09F0E5
:1012040012EF09F0DF07D8A0E007780EDF25D96ECA
:10121400010EE021DA6E300EDF6ECE07D8A0CF07C4
:10122400CE51D85DD951800AB76FCF51800AB759D2
:10123400D8B01FEF09F021EF09F030EF09F0DF51CA
:10124400D85DD951800AB76FE051800AB759D8A048
:101254002EEF09F030EF09F004EF09F0DA51D8B4B9
:1012640036EF09F038EF09F043EF09F0DF07D8A0B3
:10127400E007780EDF25D96E010EE021DA6EDAC0C0
:10128400DFFFD851CE5FD951CF5BB0C06CF0B1C095
:101294006DF0780EDF256E6F010EE0216F6FCEC00A
:1012A40070F0CFC071F0D8EC1FF0120082EC23F084
:1012B400C68AAB9E949EFF0E34EC24F0FF0E34ECF1
:1012C40024F0FF0E34EC24F0FF0E34EC24F0FF0E77
:1012D40034EC24F0010E01016F6F000E6C6F000EF0
:1012E4006B6F000E6A6FC69AAB8E948EF28EF28C80
:1012F400010E746F7451D8B482EF09F084EF09F0D1
:10130400A3EF09F06A51D8B48AEF09F08CEF09F021
:10131400A3EF09F0000E746F000E6A6FC69AAB8ECD
:101324005A0E206E020E216E4FEC22F0400E206EFB
:10133400080E216E4FEC22F0000E01016C6F000EBE
:101344006B6F0001FC51D8B4AAEF09F0ACEF09F0BF
:101354001EEF0CF0000EFC6F81AAB3EF09F0B5EF9D
:1013640009F0C2EF09F0FE51D8B4BBEF09F0BDEFAC
:1013740009F0C4EF09F0FD2B000EFE6FC4EF09F075
:10138400010EFE6FFF51D8B4CAEF09F0CCEF09F09B
:1013940026EF0AF009EC24F01F50010136272050F3
:1013A4003723000E3823000E39230E0E7265DDEF4D
:1013B40009F0DFEF09F024EF0AF0000E726F36C176
:1013C4001FF037C120F038C121F039C122F0000EDE
:1013D40008EC1AF01FC083F020C084F021C085F00F
:1013E40022C086F0000E0001876F000E886F700E19
:1013F400896F410E8A6F46EC16F083C032F184C0C7
:1014040033F185C034F186C035F132C19CF033C16B
:101414009DF034C19EF035C19FF07CEC1BF09CC064
:1014240068F19DC069F1000E0101366F000E376F3F
:10143400000E386F000E396F000E0001FF6F010EB1
:1014440001016C6FC282722B01016E51D8B42DEF71
:101454000AF02FEF0AF01EEF0CF0000E6E6FC68A32
:10146400AB9E949E000E0001F96F000E01012E6FD9
:10147400000E2F6F000E306F000E316F200E34EC13
:1014840024F00F0E34EC24F0100E34EC24F0400E53
:1014940034EC24F081B451EF0AF053EF0AF04CEF2E
:1014A4000AF0000E0001F96F0E0EF9655CEF0AF008
:1014B4005EEF0AF060EF0AF08FEF0AF0380E34ECBA
:1014C40024F081B468EF0AF06AEF0AF063EF0AF0DF
:1014D400000E01015D6F000E5C6F4BEC24F0010106
:1014E4005D6F5C6B4BEC24F00001F86FF851010167
:1014F4005C27000E5D235C512E275D512F23000EC7
:101504003023000E31230001F92B0E0EF9658DEF07
:101514000AF08FEF0AF060EF0AF0000E01012A6F63
:10152400000E2B6F000E2C6F000E2D6F210E34EC6D
:1015340024F00F0E34EC24F0110E34EC24F0400EA1
:1015440034EC24F081B4A9EF0AF0ABEF0AF0A4EF75
:101554000AF0000E0001F96F0E0EF965B4EF0AF0FF
:10156400B6EF0AF0B8EF0AF0E7EF0AF0390E34EC00
:1015740024F081B4C0EF0AF0C2EF0AF0BBEF0AF026
:10158400000E01015B6F000E5A6F4BEC24F0010159
:101594005B6F5A6B4BEC24F00001F86FF8510101BA
:1015A4005A27000E5B235A512A275B512B23000E26
:1015B4002C23000E2D230001F92B0E0EF965E5EF07
:1015C4000AF0E7EF0AF0B8EF0AF0000E0101266F07
:1015D400000E276F000E286F000E296F230E34ECC7
:1015E40024F00F0E34EC24F0130E34EC24F0400EEF
:1015F40034EC24F081B401EF0BF003EF0BF0FCEFBB
:101604000AF0000E0001F96F0E0EF9650CEF0BF0F5
:101614000EEF0BF010EF0BF03FEF0BF03B0E34EC42
:1016240024F081B418EF0BF01AEF0BF013EF0BF06A
:10163400000E0101596F000E586F4BEC24F00101AC
:10164400596F586B4BEC24F00001F86FF85101010D
:101654005827000E59235851262759512723000E85
:101664002823000E29230001F92B0E0EF9653DEF06
:101674000BF03FEF0BF010EF0BF02EC160F02FC119
:1016840061F030C162F031C163F00F0E646F000E7F
:10169400656F000E666F000E676F85EC20F060C00A
:1016A40056F161C057F12AC160F02BC161F02CC121
:1016B40062F02DC163F00F0E0001646F000E656FC0
:1016C400000E666F000E676F85EC20F060C054F169
:1016D40061C055F126C160F027C161F028C162F0F4
:1016E40029C163F00F0E0001646F000E656F000ED8
:1016F400666F000E676F85EC20F060C052F161C028
:1017040053F154C14EF155C14FF1460E0001876F9C
:10171400B60E886F510E896F410E8A6F56C11FF045
:1017240057C120F0216A226A000E08EC1AF01FC08B
:1017340083F020C084F021C085F022C086F046ECFE
:1017440016F083C09CF084C09DF085C09EF086C0D6
:101754009FF07CEC1BF09CC056F19DC057F1460EE7
:101764000001876FB60E886F510E896F410E8A6F24
:1017740054C11FF055C120F0216A226A000E08EC02
:101784001AF01FC083F020C084F021C085F022C06D
:1017940086F046EC16F083C09CF084C09DF085C0B2
:1017A4009EF086C09FF07CEC1BF09CC054F19DC061
:1017B40055F1460E0001876FB60E886F510E896F82
:1017C400410E8A6F52C11FF053C120F0216A226A70
:1017D400000E08EC1AF01FC083F020C084F021C072
:1017E40085F022C086F046EC16F083C09CF084C0DD
:1017F4009DF085C09EF086C09FF07CEC1BF09CC0E1
:1018040052F19DC053F1010E01016B6F010E6D6F1A
:101814008AA60FEF0CF014EF0CF00001F86BF82B14
:1018240016EF0CF00001F86BF847F847F8478A50B8
:10183400F819F70BF8198A6E0001FB51D8B425EF9B
:101844000CF027EF0CF02EEF0CF0000EFB6F81A4D0
:1018540002D08A8801D08A9801017751D8B435EF33
:101864000CF037EF0CF003EF0DF0000E776FEDEC9A
:1018740021F00101736F1EEC22F00001FA6F000EDB
:101884006E6F000E6F6F400E706F400E716FFA51E5
:101894001F6E206A216A226A000E08EC1AF01FC02B
:1018A4006AF020C06BF021C06CF022C06DF01BEC1C
:1018B40012F06AC09CF06BC09DF06CC09EF06DC0CD
:1018C4009FF07CEC1BF000019C510101706F6C5186
:1018D400D8B46FEF0CF071EF0CF000EF0DF06B511A
:1018E400D8B477EF0CF079EF0CF000EF0DF0000EA8
:1018F40000016E6F000E6F6F700E706F410E716F8E
:1019040068C11FF069C120F0216A226A000E08EC48
:101914001AF01FC06AF020C06BF021C06CF022C026
:101924006DF01BEC12F06AC083F06BC084F06CC0E5
:1019340085F06DC086F0000E0001876F000E886F81
:10194400800E896F440E8A6F46EC16F083C022F134
:1019540084C023F185C024F186C025F1000E000166
:101964006E6F000E6F6F7A0E706F430E716F22C12F
:101974006AF023C16BF024C16CF025C16DF01BEC3F
:1019840012F06AC09CF06BC09DF06CC09EF06DC0FC
:101994009FF07CEC1BF09CC048F19DC049F15A0EAD
:1019A4000101D26F020ED36F010ED46F080ED56FF2
:1019B40071C1D6F1D76BFDC0D8F1D96B22C1DAF170
:1019C40023C1DBF124C1DCF125C1DDF148C1DEF125
:1019D40049C1DFF170C1E0F1E16B73C1E2F1E36B86
:1019E40054C1E4F155C1E5F152C1E6F153C1E7F147
:1019F40056C1E8F157C1E9F1D0EC22F0010E010122
:101A04006A6F7651D8B409EF0DF00BEF0DF07CEF4F
:101A14000DF0000E766F010E0001FF6F010E010143
:101A24006E6F6D51D8B419EF0DF01BEF0DF07CEF14
:101A34000DF0000E6D6F9A0E4E5D190E4F59D8A021
:101A440026EF0DF028EF0DF049EF0DF04C4B4D2B28
:101A54004D5109E16F0E4C5DD8A033EF0DF035EF19
:101A64000DF07CEF0DF0000E4D6F000E4C6F4B0E21
:101A740000016A6F590E6B6F860E6C6F3C0E6D6FB2
:101A84005EEC24F0010E0101716F7CEF0DF0000E8D
:101A9400716F000E4D6F000E4C6F1EEC22F00001B2
:101AA400FA6FFA51D8A459EF0DF05BEF0DF067EF20
:101AB4000DF04B0E6A6F590E6B6F860E6C6F3C0EF9
:101AC4006D6F5EEC24F07CEF0DF0010170511F6E20
:101AD400206A216A226A000E08EC1AF01FC06AF01C
:101AE40020C06BF021C06CF022C06DF05EEC24F0DD
:101AF4007CEF0DF001017551D8B483EF0DF085EF43
:101B04000DF07CEF09F0000E756F7CEF09F048EFE3
:101B140000F000016351800B686F635163256A6FA5
:101B240062AF97EF0DF099EF0DF09AEF0DF06A8127
:101B34006A51D8B4A0EF0DF0A2EF0DF0B7EF0DF09D
:101B44006A29D8A4A8EF0DF0AAEF0DF0B2EF0DF0BA
:101B5400000E606F000E616F000E626F000E636F07
:101B6400628F000E636FBFEF0DF0000E606F000E0A
:101B7400616F000E626F000E636F6751800B696FB7
:101B840068516919D8B4C9EF0DF0CBEF0DF0CCEF63
:101B94000DF0688D67516725696F66AFD4EF0DF05E
:101BA400D6EF0DF0D7EF0DF069816951D8B4DDEFB0
:101BB4000DF0DFEF0DF0F4EF0DF06929D8A4E5EF97
:101BC4000DF0E7EF0DF0EFEF0DF0000E646F000E77
:101BD400656F000E666F000E676F668F000E676F8D
:101BE400FCEF0DF0000E646F000E656F000E666F63
:101BF400000E676F6A51695DD8B003EF0EF005EF10
:101C04000EF02CEF0EF068AD0AEF0EF00CEF0EF0B4
:101C14000EEF0EF0800E681B6AC06BF069C06AF0AC
:101C24006BC069F060C06BF064C060F06BC064F0BE
:101C340061C06BF065C061F06BC065F062C06BF0B1
:101C440066C062F06BC066F063C06BF067C063F09F
:101C54006BC067F0000E6B6F6A5169C01FF0206A99
:101C64001F5E000E205A20BE41EF0EF0205009E105
:101C74001A0E1F5CD8A041EF0EF043EF0EF07AEF7E
:101C84000EF06051611162116311D8A44CEF0EF093
:101C94004FEF0EF0010E50EF0EF0000E6B6F000EC2
:101CA400606F000E616F000E626F000E636F69C09B
:101CB4006AF083EF0EF06BA162EF0EF064EF0EF0AA
:101CC4006AEF0EF0D8906B3101096B6F6CEF0EF078
:101CD400D8906B3360A171EF0EF073EF0EF074EFD8
:101CE4000EF06B8F633563336233613360336A2B79
:101CF40069516A5DD8A081EF0EF083EF0EF05DEFBD
:101D04000EF068BD88EF0EF08AEF0EF0CAEF0EF009
:101D14006A51D8A490EF0EF092EF0EF09CEF0EF003
:101D2400000E606F000E616F000E626F000E636F35
:101D3400EBEF0FF064516027655161236651622314
:101D44006751632363A1A9EF0EF0ABEF0EF057EFD9
:101D54000FF06BA1B0EF0EF0B2EF0EF0B8EF0EF093
:101D6400D8906B3101096B6FBAEF0EF0D8906B33DA
:101D740060A1BFEF0EF0C1EF0EF0C2EF0EF06B8F5B
:101D8400633563336233613360336A2B57EF0FF08B
:101D94006451605D65516159665162596351800AAD
:101DA4001F6E6751800A1F58D8B0DBEF0EF0DDEFCD
:101DB4000EF008EF0FF06051645D1F6E61516559BC
:101DC400206E62516659216E63516759226EFF0E6F
:101DD4001F24606FFF0E2020616FFF0E2120626FB1
:101DE400FF0E2220636F800E681B6B6D6B51D8A4AD
:101DF400FEEF0EF000EF0FF010EF0FF0010E602772
:101E0400000E61236223632310EF0FF06451605FBF
:101E14006551615B6651625B6751635B605161113F
:101E240062116311D8A419EF0FF01BEF0FF050EFFC
:101E34000FF06B51D8A421EF0FF023EF0FF050EF08
:101E44000FF0000E606F000E616F000E626F000EE7
:101E5400636FEBEF0FF0D890603761376237633709
:101E64006BAF37EF0FF039EF0FF03AEF0FF06081FF
:101E74006BA13FEF0FF041EF0FF045EF0FF0D8806B
:101E84006B3747EF0FF0D8906B376A51D8B44DEFEA
:101E94000FF04FEF0FF050EF0FF06A0762AF55EFFE
:101EA4000FF057EF0FF02DEF0FF0000E696F6BAFCF
:101EB4005EEF0FF060EF0FF078EF0FF06BC01FF0E4
:101EC4007F0E1F16D8B469EF0FF06BEF0FF06FEFB2
:101ED4000FF0010E696F78EF0FF060A174EF0FF04F
:101EE40076EF0FF078EF0FF06BEF0FF06951D8B485
:101EF4007EEF0FF080EF0FF0ABEF0FF0010E6027D5
:101F0400000E61236223632363A18BEF0FF08DEF37
:101F14000FF0ABEF0FF060C01FF061C020F062C0A3
:101F240021F063C022F022342232213220321F32C7
:101F34001FC060F020C061F021C062F022C063F0D5
:101F44006A29D8B4A8EF0FF0AAEF0FF0ABEF0FF0A7
:101F54006A2B6A29D8B4B1EF0FF0B3EF0FF0BBEFDF
:101F64000FF06A51D8A4B9EF0FF0BBEF0FF0CDEF2B
:101F74000FF0000E606F000E616F000E626F000EB6
:101F8400636F6A51D8A4C9EF0FF0CBEF0FF0CDEF18
:101F94000FF0000E686F6AA1D2EF0FF0D4EF0FF0CC
:101FA400D7EF0FF0628FD8EF0FF0629FD8906A31AD
:101FB400636F68AFE0EF0FF0E2EF0FF0E3EF0FF0C5
:101FC400638F60C060F061C061F062C062F063C0A2
:101FD40063F01200E7C0D9FFE8C0DAFFDECFF6FFF6
:101FE400DDCFF7FF0800F550250AD8A4FCEF0FF069
:101FF400FEEF0FF006EF12F0E7C0D9FFE8C0DAFFFA
:10200400DE2A000EDD22000E256E000E246E24C092
:1020140036F026682768000E0001EE6F000EED6FA3
:102024003EEF10F03682E7C0D9FFE8C0DAFFDE2ABF
:10203400000EDD223EEF10F0000EEE6F010EED6F8C
:102044003EEF10F0E7C0D9FFE8C0DAFFDECFF6FFBD
:10205400DDCFF7FF0800F550EB6FEC6BEC51000A95
:10206400D8B437EF10F01EEF10F0EB51300AD8B4AB
:1020740014EF10F01EEF10F0ED51EE11D8B445EF4F
:1020840010F047EF10F024EF10F0E7C062F0E8C062
:1020940063F0E9C064F0EAC065F05DEC1EF062C074
:1020A40024F063C025F025BE5CEF10F05AEF10F069
:1020B40061EF10F03680246C251ED8B0252AE7C0C5
:1020C400D9FFE8C0DAFFDECFF6FFDDCFF7FF080067
:1020D400F5502E0AD8A471EF10F073EF10F088EFCA
:1020E40010F0E7C0D9FFE8C0DAFFDE2A000EDD22D7
:1020F400E7C062F0E8C063F0E9C064F0EAC065F0EC
:102104005DEC1EF062C026F063C027F0E7C0D9FF83
:10211400E8C0DAFFDECFF4F0DDCFF5F0F4C0F6FF6F
:10212400F5C0F7FF0800F550640AD8B49CEF10F02E
:102134009EEF10F0ACEF10F0F4C0F6FFF5C0F7FF1F
:102144000800F550690AD8A4AAEF10F0ACEF10F01B
:10215400DBEF10F0E9C0D9FFEAC0DAFFDFCFEBF024
:10216400020EDE26DFCFECF0000EDD22EBC0D9FF3D
:10217400ECC0DAFFDECFF0F0DDCFF1F0010E0001AC
:10218400F425EB6F000EF521EC6FE7C0D9FFE8C032
:10219400DAFFEBC0DEFFECC0DDFFE5C076F0E6C0A1
:1021A40077F0F0C078F0F1C079F01FEC19F01AEF75
:1021B40012F0F4C0F6FFF5C0F7FF0800F550750AF9
:1021C400D8A4E7EF10F0E9EF10F030EF11F0E9C018
:1021D400D9FFEAC0DAFFDFCFEBF0020EDE26DFCF55
:1021E400ECF0000EDD22EBC0D9FFECC0DAFFDECF4D
:1021F400F0F0DDCFF1F0010E0001F425EB6F000EDD
:10220400F521EC6FE7C0D9FFE8C0DAFFEBC0DEFFD1
:10221400ECC0DDFF1AEF11F0E5C076F0E6C077F010
:10222400F0C078F0F1C079F0E4EC1AF01AEF12F093
:10223400F4C0F6FFF5C0F7FF0800F550EB6FEC6B48
:10224400EC51000AD8B429EF11F030EF11F0EB5142
:10225400750AD8B40EEF11F030EF11F0E7C0D9FFD2
:10226400E8C0DAFFDECFF4F0DDCFF5F0F4C0F6FF1E
:10227400F5C0F7FF0800F5CFEFF04DEF11F0F44B88
:10228400F52B67EF11F06C0EEF6F67EF11F0000E96
:10229400EF6F67EF11F00001EF51EB6FEC6BEC5156
:1022A400000AD8B458EF11F049EF11F0EB514C0A81
:1022B400D8B441EF11F02A0AD8B445EF11F00A0A54
:1022C400D8B441EF11F049EF11F0F4C0F6FFF5C0B6
:1022D400F7FF0800F550660AD8A473EF11F075EF04
:1022E40011F0FDEF11F0ABEF11F0E9C0D9FFEAC036
:1022F400DAFFDFCFEBF0040EDE26DFCFECF0000ECA
:10230400DD22EBC0D9FFECC0DAFFDECFF0F0DECF88
:10231400F1F0DECFF2F0DECFF3F0C0EF11F0E9C060
:10232400D9FFEAC0DAFFDFCFEBF0040EDE26DFCF01
:10233400ECF0000EDD22EBC0D9FFECC0DAFFDECFFB
:10234400F0F0DECFF1F0DECFF2F0DECFF3F0C0EF4D
:1023540011F0EF51EB6FEC6BEC51000AD8B4B5EF10
:1023640011F0C0EF11F0EB514C0AD8B491EF11F019
:10237400200AD8B477EF11F0C0EF11F0010EF42564
:10238400EB6F000EF521EC6FE7C0D9FFE8C0DAFF70
:10239400EBC0DEFFECC0DDFFE7EF11F0E5C0B0F00D
:1023A400E6C0B1F0F0C0B2F0F1C0B3F0F2C0B4F0E6
:1023B400F3C0B5F0F4C0F6FFF5C0F7FF0800F5CFA1
:1023C400B6F022EC04F01AEF12F0F4C0F6FFF5C0F8
:1023D400F7FF0800F550EB6FEC6BEC51000AD8B432
:1023E400F6EF11F0FDEF11F0EB51660AD8B4D0EF1F
:1023F40011F0FDEF11F0E7C0D9FFE8C0DAFFDE2AE3
:10240400000EDD221AEF12F0E7C0D9FFE8C0DAFFB0
:10241400DECFF6FFDDCFF7FF0800F5501F6E206A10
:10242400E5C021F0E6C022F0F6EC1DF0FDEF11F05E
:10243400120000016D51800B766F6D516D257C6F1C
:102444006CAF27EF12F029EF12F02AEF12F07C8123
:102454007C51D8B430EF12F032EF12F045EF12F0A5
:102464007C29D8A438EF12F03AEF12F042EF12F0C0
:10247400000E6A6F000E6B6F000E6C6F000E6D6FB6
:102484006C8F4DEF12F0000E6A6F000E6B6F000E32
:102494006C6F000E6D6F7151800B761B715171253D
:1024A400776F70AF58EF12F05AEF12F05BEF12F043
:1024B40077817751D8B461EF12F063EF12F076EFC1
:1024C40012F07729D8A469EF12F06BEF12F073EFD2
:1024D40012F0000E6E6F000E6F6F000E706F000E24
:1024E400716F708F7EEF12F0000E6E6F000E6F6FC3
:1024F400000E706F000E716F7751D8B484EF12F034
:1025040086EF12F08EEF12F07C51D8A48CEF12F00B
:102514008EEF12F098EF12F0000E6A6F000E6B6FE0
:10252400000E6C6F000E6D6F30EF14F070516A0383
:10253400F3CF81F0F4CF82F08151786F796B7A6BAD
:102544007B6B82517D6F7E6B7F6B806B6F516B03F6
:10255400F3CF81F0F4CF82F081517827000E7923F4
:102564007A237B2382517D27000E7E237F238023C1
:102574006E516C03F3CF81F0F4CF82F08151782750
:10258400000E79237A237B2382517D27000E7E233C
:102594007F2380237AC07BF079C07AF078C079F009
:1025A400786B6E516B03F3CF81F0F4CF82F08151DD
:1025B400782782517923000E7A23000E7B236F51F2
:1025C4006A03F3CF81F0F4CF82F0815178278251EE
:1025D4007923000E7A23000E7B237AC07BF079C026
:1025E4007AF078C079F0786B6E516A03F3CF81F09A
:1025F400F4CF82F08151782782517923000E7A2317
:10260400000E7B2370516B03F3CF81F0F4CF82F083
:1026140081517D2782517E23000E7F23000E80236B
:102624006F516C03F3CF81F0F4CF82F081517D2799
:1026340082517E23000E7F23000E802370516C0391
:10264400F3CF81F0F4CF82F08151726F8251736FB6
:10265400746B756B74C075F073C074F072C073F0F2
:10266400726B72517D2773517E2374517F23755190
:10267400802378C072F079C073F07AC074F07BC0A4
:1026840075F0190E4BEF13F0D89075337433733320
:102694007233E82E46EF13F072517D2773517E2377
:1026A40074517F23755180237AC07BF079C07AF00E
:1026B40078C079F0786B77517CC072F0736B7227B5
:1026C400000E7323820E7225816FFF0E7321826FB9
:1026D40081EF13F0D8907D377E377F3780377BAF1B
:1026E40076EF13F078EF13F079EF13F07D81D89043
:1026F400783779377A377B378107D8A082077FAF5D
:1027040086EF13F088EF13F06CEF13F0000E776F81
:102714007BAF8FEF13F091EF13F0B5EF13F0FF0ED3
:102724007815726FFF0E7915736FFF0E7A15746F3B
:102734007F0E7B15756F7251731174117511D8B4B6
:10274400A6EF13F0A8EF13F0ACEF13F0010E776FC0
:10275400B5EF13F07DA1B1EF13F0B3EF13F0B5EFC4
:1027640013F0A8EF13F07751D8B4BBEF13F0BDEF1B
:1027740013F0E1EF13F0010E7D27000E7E237F237B
:10278400802380A1C8EF13F0CAEF13F0E1EF13F038
:102794007DC072F07EC073F07FC074F080C075F0AD
:1027A4007535753374337333723372C07DF073C00F
:1027B4007EF074C07FF075C080F0814B822B82BFA5
:1027C400ECEF13F0825108E18129D8A0ECEF13F06B
:1027D400EEEF13F0F8EF13F0000E7D6F000E7E6F36
:1027E400800E7F6F7F0E806F26EF14F082BF05EF9F
:1027F40014F0825106E18105D8B003EF14F005EF1F
:1028040014F011EF14F0000E7D6F000E7E6F000EB9
:102814007F6F000E806F000E766F26EF14F081C07C
:102824007CF0FF0E7D17FF0E7E177F0E7F17000EC4
:1028340080177CA120EF14F022EF14F023EF14F0A2
:102844007F8FD8907C31806F765180137DC06AF081
:102854007EC06BF07FC06CF080C06DF0120004503D
:10286400800B0D6E04500424136E03AE3CEF14F081
:102874003EEF14F03FEF14F013801350D8B445EF3B
:1028840014F047EF14F05AEF14F01328D8A44DEFC6
:1028940014F04FEF14F057EF14F0000E016E000E19
:1028A400026E000E036E000E046E038E62EF14F0CF
:1028B400000E016E000E026E000E036E000E046E1A
:1028C4000850800B0D1A08500824126E07AE6DEFE5
:1028D40014F06FEF14F070EF14F012801250D8B4AB
:1028E40076EF14F078EF14F08BEF14F01228D8A4DC
:1028F4007EEF14F080EF14F088EF14F0000E056EF4
:10290400000E066E000E076E000E086E078E93EF23
:1029140014F0000E056E000E066E000E076E000E1B
:10292400086E1250D8B499EF14F09BEF14F0A3EF93
:1029340014F01350D8A4A1EF14F0A3EF14F0ADEFEA
:1029440014F0000E016E000E026E000E036E000EF7
:10295400046E45EF16F007500102F3CF18F0F4CFE0
:1029640019F018500E6E0F6A106A116A1950146E1D
:10297400156A166A176A06500202F3CF18F0F4CFEC
:1029840019F018500E26000E0F2210221122195091
:102994001426000E15221622172205500302F3CF27
:1029A40018F0F4CF19F018500E26000E0F22102242
:1029B400112219501426000E15221622172210C0B7
:1029C40011F00FC010F00EC00FF00E6A0550020295
:1029D400F3CF18F0F4CF19F018500E2619500F2227
:1029E400000E1022000E112206500102F3CF18F03F
:1029F400F4CF19F018500E2619500F22000E102291
:102A0400000E112210C011F00FC010F00EC00FF014
:102A14000E6A05500102F3CF18F0F4CF19F01850E4
:102A24000E2619500F22000E1022000E11220750FC
:102A34000202F3CF18F0F4CF19F0185014261950ED
:102A44001522000E1622000E172206500302F3CFA1
:102A540018F0F4CF19F01850142619501522000E4E
:102A64001622000E172207500302F3CF18F0F4CFFA
:102A740019F01850096E19500A6E0B6A0C6A0BC0D3
:102A84000CF00AC00BF009C00AF0096A09501426B8
:102A94000A5015220B5016220C5017220EC009F0B2
:102AA4000FC00AF010C00BF011C00CF0190E60EF4B
:102AB40015F0D8900C320B320A320932E82E5BEF53
:102AC40015F0095014260A5015220B5016220C50EA
:102AD400172210C011F00FC010F00EC00FF00E6AD4
:102AE400125013C009F00A6A0926000E0A22820E47
:102AF4000924186EFF0E0A20196E96EF15F0D8906F
:102B0400143615361636173611AE8BEF15F08DEFD9
:102B140015F08EEF15F01480D8900E360F3610365F
:102B240011361806D8A0190616AE9BEF15F09DEFC6
:102B340015F081EF15F0000E126E11AEA4EF15F032
:102B4400A6EF15F0CAEF15F0FF0E0E14096EFF0E76
:102B54000F140A6EFF0E10140B6E7F0E11140C6E00
:102B640009500A100B100C10D8B4BBEF15F0BDEFD0
:102B740015F0C1EF15F0010E126ECAEF15F014A096
:102B8400C6EF15F0C8EF15F0CAEF15F0BDEF15F05C
:102B94001250D8B4D0EF15F0D2EF15F0F6EF15F0CF
:102BA400010E1426000E15221622172217A0DDEF9F
:102BB40015F0DFEF15F0F6EF15F014C009F015C0AD
:102BC4000AF016C00BF017C00CF00C340C320B32A8
:102BD4000A32093209C014F00AC015F00BC016F00D
:102BE4000CC017F0184A192A19BE01EF16F0195033
:102BF40008E11828D8A001EF16F003EF16F00DEF46
:102C040016F0000E146E000E156E800E166E7F0EFA
:102C1400176E3BEF16F019BE1AEF16F0195006E1C5
:102C24001804D8B018EF16F01AEF16F026EF16F0C5
:102C3400000E146E000E156E000E166E000E176E4A
:102C4400000E0D6E3BEF16F018C013F0FF0E1416B5
:102C5400FF0E15167F0E1616000E171613A035EF6D
:102C640016F037EF16F038EF16F0168ED8901330B2
:102C7400176E0D50171214C001F015C002F016C0E3
:102C840003F017C004F0120000018651800B936F0B
:102C9400865186259A6F85AF52EF16F054EF16F0E1
:102CA40055EF16F09A819A51D8B45BEF16F05DEFA8
:102CB40016F072EF16F09A29D8A463EF16F065EFB8
:102CC40016F06DEF16F0000E836F000E846F000E89
:102CD400856F000E866F858F000E866F7AEF16F073
:102CE400000E836F000E846F000E856F000E866FDA
:102CF4008A51800B931B8A518A259B6F89AF85EF7C
:102D040016F087EF16F088EF16F09B819B51D8B42C
:102D14008EEF16F090EF16F0A5EF16F09B29D8A4CD
:102D240096EF16F098EF16F0A0EF16F0000E876FEE
:102D3400000E886F000E896F000E8A6F898F000E57
:102D44008A6FADEF16F0000E876F000E886F000ECD
:102D5400896F000E8A6F8751881189118A11D8A44E
:102D6400B6EF16F0B8EF16F0D0EF16F0000E836F42
:102D7400000E846F000E856F000E866F800E851323
:102D84007F0E86139351861383C083F084C084F02E
:102D940085C085F086C086F013EF18F09A51D8A448
:102DA400D6EF16F0D8EF16F0E2EF16F0000E836FB0
:102DB400000E846F000E856F000E866F13EF18F0FF
:102DC4009B519AC08BF08C6B8B5F000E8C5B7F0EDB
:102DD4008B25946F000E8C21956F83C08FF084C077
:102DE40090F085C091F086C092F0000E836F000EC3
:102DF400846F000E856F000E866F000E966F000EB6
:102E0400976F000E986F000E996F000E9B6F43EF43
:102E140017F09B51D8B411EF17F013EF17F02AEF06
:102E240017F0D8908F37903791379237D8908337EF
:102E340084378537863799AF22EF17F024EF17F0E0
:102E440025EF17F08381D8909637973798379937BD
:102E540087518F5D88519059895191598A5192595E
:102E6400D8A037EF17F039EF17F042EF17F0998D2C
:102E740087518F5F8851905B8951915B8A51925B36
:102E84009B2B190E9B6549EF17F04BEF17F00BEFD7
:102E940017F08F51901191119211D8B454EF17F08B
:102EA40056EF17F06EEF17F096816EEF17F0D8908B
:102EB400833784378537863799AF63EF17F065EF2B
:102EC40017F066EF17F08381D890963797379837C5
:102ED40099379407D8A0950785AF73EF17F075EF6E
:102EE40017F059EF17F0000E9B6F99AF7CEF17F0B6
:102EF4007EEF17F0A2EF17F0FF0E96158B6FFF0E03
:102F040097158C6FFF0E98158D6F7F0E99158E6F28
:102F14008B518C118D118E11D8B493EF17F095EF5E
:102F240017F099EF17F0010E9B6FA2EF17F083A132
:102F34009EEF17F0A0EF17F0A2EF17F095EF17F040
:102F44009B51D8B4A8EF17F0AAEF17F0CEEF17F003
:102F5400010E8327000E84238523862386A1B5EFE3
:102F640017F0B7EF17F0CEEF17F083C08BF084C0E3
:102F74008CF085C08DF086C08EF08E358E338D3307
:102F84008C338B338BC083F08CC084F08DC085F080
:102F94008EC086F0944B952B95BFD9EF17F09551C1
:102FA40008E19429D8A0D9EF17F0DBEF17F0E6EF8A
:102FB40017F0000E956F9469000E836F000E846FF6
:102FC400000E856F000E866F95BFF3EF17F09551D5
:102FD40006E19405D8B0F1EF17F0F3EF17F001EF25
:102FE40018F0000E956F000E946F000E836F000EA4
:102FF400846F000E856F000E866F000E936F94C071
:103004009AF09AA108EF18F00AEF18F00DEF18F0F3
:10301400858F0EEF18F0859FD8909A31866FC4EF94
:1030240016F0120012C1ACF013C1ADF014C1AEF031
:1030340015C1AFF09CC0ACF09DC0ADF09EC0AEF029
:103044009FC0AFF0810E0001A06FFF0EA16FACC056
:10305400A2F0ADC0A3F0AEC0A4F0AFC0A5F0180EAE
:1030640039EF18F0D890A533A433A333A233E82E54
:1030740034EF18F0A251A025AA6F000EA121AB6F66
:10308400ABBF4EEF18F0AB5109E1170EAA5DD8A003
:103094004EEF18F050EF18F05AEF18F09CC09CF067
:1030A4009DC09DF09EC09EF09FC09FF01EEF19F042
:1030B400ABBF5FEF18F061EF18F0D2EF18F0AAC0C1
:1030C400A0F0FF0EA16FFF0EA26F7F0EA36F000E84
:1030D400A46FA06770EF18F078EF18F0A435A4334C
:1030E400A333A233A133A02F6BEF18F0A1C0A6F035
:1030F400A2C0A7F0A3C0A8F0A4C0A9F00001A651E3
:10310400AC15A06FA751AD15A16FA851AE15A26F54
:10311400A951AF15A36FA051A111A211A311D8A455
:1031240096EF18F098EF18F09AEF18F050EF18F0A7
:10313400ACC0A0F0ADC0A1F0AEC0A2F0AFC0A3F08F
:10314400200EAAEF18F0D890A333A233A133A033F2
:10315400E82EA5EF18F0A051A111A211A311D8B423
:10316400B6EF18F0B8EF18F0C0EF18F0A651AC277E
:10317400A751AD23A851AE23A951AF23A61DA06F1B
:10318400A71DA16FA81DA26FA91DA36FA051AC1705
:10319400A151AD17A251AE17A351AF1716EF19F0F5
:1031A400ACC0A0F0ADC0A1F0AEC0A2F0AFC0A3F01F
:1031B400200EE2EF18F0D890A333A233A133A0334A
:1031C400E82EDDEF18F0A051A111A211A311D8A48B
:1031D400EEEF18F0F0EF18F0FAEF18F0000EAC6F05
:1031E400000EAD6F000EAE6F000EAF6F16EF19F04C
:1031F400D890AC35A06FAD35A16FAE35A26FAF35A9
:10320400A36FA051A111A211A311D8B40CEF19F00E
:103214000EEF19F016EF19F0000EAC6F000EAD6F43
:10322400800EAE6FBF0EAF6FACC09CF0ADC09DF012
:10323400AEC09EF0AFC09FF01200000179BF25EF31
:1032440019F028EF19F0010E29EF19F0000E806F24
:103254008051D8B430EF19F032EF19F036EF19F08D
:10326400786D791FD8B0792B27BE3BEF19F03DEF6D
:1032740019F03EEF19F0369227BE45EF19F043EFEF
:1032840019F04BEF19F0000E7D6F010E7C6F4FEFBC
:1032940019F026C07CF027C07DF024C07EF025C044
:1032A4007FF08051D8B459EF19F05BEF19F072EF49
:1032B40019F07E07D8A07F078051D8A464EF19F0D5
:1032C40066EF19F06CEF19F0000E7B6F2B0E7A6F1E
:1032D40070EF19F0000E7B6F2D0E7A6F7AC080F0BC
:1032E400000E826F4F0E816F000E0101C76FACEFAD
:1032F40019F08107D8A08207780E8125D96E010EB6
:103304008221DA6E78C01FF079C020F0000E226EA0
:103314000A0E216E7FEC1FF01FC062F020C063F024
:1033240061EC23F000016251300FDF6E7C07D8A0FE
:103334007D077E07D8A07F0778C01FF079C020F0F2
:10334400000E226E0A0E216EC2EC1EF01FC078F031
:1033540020C079F0000182BFB8EF19F0825108E172
:103364008105D8A0B8EF19F0BAEF19F0E4EF19F01D
:1033740078517911D8A4C1EF19F0C3EF19F07BEF9C
:1033840019F07DBFD0EF19F07D5106E17C05D8B06E
:10339400CEEF19F0D0EF19F07BEF19F07FBFDBEF20
:1033A40019F07F5108E17E05D8A0DBEF19F0DDEFBD
:1033B40019F0E4EF19F036B2E2EF19F0E4EF19F086
:1033C4007BEF19F08051D8B4EAEF19F0ECEF19F063
:1033D400F7EF19F08107D8A08207780E8125D96EFE
:1033E400010E8221DA6E80C0DFFF76C06CF077C0F8
:1033F4006DF0780E81256E6F010E82216F6F7EC095
:1034040070F07FC071F0D8EC1FF012000001646FFF
:1034140000016451D8B411EF1AF013EF1AF035EF2C
:103424001AF022BE1AEF1AF018EF1AF035EF1AF05C
:103434001FC060F020C061F021C062F022C063F0C0
:10344400601F611F621F631F602B000E61236223D4
:10345400632360C066F061C067F062C068F063C057
:1034640069F03DEF1AF01FC066F020C067F021C07C
:1034740068F022C069F01F50201021102210D8A437
:1034840046EF1AF048EF1AF052EF1AF0000E1F6ED2
:10349400000E206E000E216E000E226EE3EF1AF075
:1034A400960E656F5CEF1AF0652BD890693368331C
:1034B40067336633000E6615606F000E6715616F23
:1034C400000E6815626FFE0E6915636F605161111D
:1034D40062116311D8A471EF1AF073EF1AF056EF6A
:1034E4001AF081EF1AF0652B010E6627000E672390
:1034F40068236923D8906933683367336633000ED1
:103504006615606F000E6715616F000E6815626FB7
:10351400FF0E6915636F6051611162116311D8A4C4
:1035240096EF1AF098EF1AF075EF1AF0A0EF1AF070
:103534006507D890663767376837693768BFA5EF7E
:103544001AF0A7EF1AF0AFEF1AF0020E6561ADEFB3
:103554001AF0AFEF1AF09AEF1AF065B1B4EF1AF05F
:10356400B6EF1AF0B7EF1AF0689FD890653365C0CC
:1035740060F0616B626B636B60C063F0626B616B84
:10358400606B605166136151671362516813635134
:1035940069136451D8B4D1EF1AF0D3EF1AF0DBEF0A
:1035A4001AF022BEDAEF1AF0D8EF1AF0DBEF1AF0B5
:1035B400698F66C01FF067C020F068C021F069C041
:1035C40022F0120027BEE9EF1AF0EBEF1AF0ECEF4D
:1035D4001AF0369227BEF3EF1AF0F1EF1AF0FAEF71
:1035E4001AF0000E00017B6F010E7A6FFEEF1AF0E5
:1035F40026C07AF027C07BF024C07CF025C07DF083
:10360400000E00017F6F4F0E7E6F000E0101C76F29
:1036140037EF1BF07E07D8A07F07780E7E25D96E82
:10362400010E7F21DA6E78C01FF079C020F0000E01
:10363400226E0A0E216EBBEC21F01F50300FDF6E9C
:1036440000017A07D8A07B077C07D8A07D0778C043
:103654001FF079C020F0000E226E0A0E216E16ECC7
:1036640021F01FC078F020C079F000017E517F1155
:10367400D8B43FEF1BF041EF1BF06BEF1BF0785118
:103684007911D8A448EF1BF04AEF1BF00CEF1BF0A4
:103694007BBF57EF1BF07B5106E17A05D8B055EF9D
:1036A4001BF057EF1BF00CEF1BF07DBF62EF1BF01C
:1036B4007D5108E17C05D8A062EF1BF064EF1BF09C
:1036C4006BEF1BF036B269EF1BF06BEF1BF00CEFE6
:1036D4001BF076C06CF077C06DF0780E7E256E6FAF
:1036E400010E7F216F6F7CC070F07DC071F0D8EC4B
:1036F4001FF0120000019E359F35A56FA551D8A477
:1037040086EF1BF088EF1BF092EF1BF0000E9C6F0E
:10371400000E9D6F000E9E6F000E9F6FFFEF1BF05B
:103724009CC0A0F09DC0A1F09EC0A2F09FC0A3F0D9
:10373400200EA2EF1BF0D890A333A233A133A03301
:10374400E82E9DEF1BF0A051A46F9E8FFF0E9C17D7
:10375400FF0E9D17FF0E9E17000E9F17960EA55F76
:10376400A5BFB9EF1BF0B7EF1BF0CFEF1BF0A551CE
:10377400800A970FD8B0C1EF1BF0C3EF1BF0C5EF61
:103784001BF088EF1BF0D8909F339E339D339C33FE
:10379400A53FC5EF1BF0E7EF1BF01F0EA565D5EFA6
:1037A4001BF0D7EF1BF0DFEF1BF088EF1BF0D89076
:1037B4009C379D379E379F37A507A551D8A4E5EFC1
:1037C4001BF0E7EF1BF0D9EF1BF0A451D8B4EDEFD9
:1037D4001BF0EFEF1BF0F7EF1BF09F1F9E1F9D1FC9
:1037E4009C6D000E9D239E239F239CC09CF09DC036
:1037F4009DF09EC09EF09FC09FF01200000E00013D
:1038040083158B6F000E84158C6F800E85158D6F5C
:103814007F0E86158E6F8B518C118D118E11D8A44D
:1038240016EF1CF018EF1CF020EF1CF0000E836F55
:10383400000E846F000E856F000E866F000E8715D4
:103844008B6F000E88158C6F800E89158D6F7F0E1F
:103854008A158E6F8B518C118D118E11D8A435EF72
:103864001CF037EF1CF03FEF1CF0000E876F000ECA
:10387400886F000E896F000E8A6F86AF44EF1CF0CC
:1038840046EF1CF04FEF1CF0836D841FD8B0842BDF
:10389400851FD8B0852B800E86578AAF54EF1CF055
:1038A40056EF1CF05FEF1CF0876D881FD8B0882B93
:1038B400891FD8B0892B800E8A57000E831B000EF7
:1038C400841B000E851B800E861B000E871B000EBA
:1038D400881B000E891B800E8A1B8751835D8851CB
:1038E4008459895185598A518659D8B07CEF1CF086
:1038F4007EEF1CF081EF1CF0D89082EF1CF0D88092
:103904001200033404340A6E0A50D8A48CEF1CF05D
:103914008EEF1CF098EF1CF0000E016E000E026E8C
:10392400000E036E000E046E05EF1DF001C005F0DD
:1039340002C006F003C007F004C008F0200EA8EF90
:103944001CF0D8900832073206320532E82EA3EF75
:103954001CF00550096E038EFF0E0116FF0E0216B1
:10396400FF0E0316000E0416960E0A5E0ABEBFEF83
:103974001CF0BDEF1CF0D5EF1CF00A50800A970F25
:10398400D8B0C7EF1CF0C9EF1CF0CBEF1CF08EEFE2
:103994001CF0D89004320332023201320A3ECBEFDB
:1039A4001CF0EDEF1CF01F0E0A64DBEF1CF0DDEFE2
:1039B4001CF0E5EF1CF08EEF1CF0D89001360236B7
:1039C400033604360A060A50D8A4EBEF1CF0EDEFD8
:1039D4001CF0DFEF1CF00950D8B4F3EF1CF0F5EF46
:1039E4001CF0FDEF1CF0041E031E021E016C000EF1
:1039F40002220322042201C001F002C002F003C02B
:103A040003F004C004F0120016C166F017C167F099
:103A140018C168F019C169F01FC066F020C067F0D2
:103A240021C068F022C069F066C060F067C061F030
:103A340068C062F069C063F0180E27EF1DF0000142
:103A4400D8906333623361336033E82E21EF1DF085
:103A54006051646F656B64516511D8A434EF1DF037
:103A640036EF1DF056EF1DF0D8906635606F673560
:103A7400616F6835626F6935636F605161116211FE
:103A84006311D8A448EF1DF04AEF1DF050EF1DF06C
:103A9400000E206E020E1F6E85EF1DF0000E206ECC
:103AA400030E1F6E85EF1DF064296511D8A45DEF28
:103AB4001DF05FEF1DF081EF1DF066C060F067C080
:103AC40061F068C062F069C063F0090ED890603795
:103AD400613762376337E82E68EF1DF0605161117A
:103AE40062116311D8B479EF1DF07CEF1DF0010E63
:103AF4007DEF1DF0000E1F6E206A85EF1DF0000E95
:103B0400206E040E1F6E12009E92335009E1030EC4
:103B1400325CD8A090EF1DF092EF1DF09BEF1DF0EA
:103B2400000E336E000E326E010E0001FC6F9DEF2D
:103B34001DF0324A332A315009E1080E305CD8A016
:103B4400A6EF1DF0A8EF1DF0B1EF1DF0000E316ED1
:103B5400000E306E010E0001FB6FB3EF1DF0304A12
:103B6400312A2F5009E10F0E2E5CD8A0BCEF1DF0B6
:103B7400BEEF1DF0C7EF1DF0000E2F6E000E2E6E6F
:103B8400010E0101776FC9EF1DF02E4A2F2A2D5027
:103B940009E11E0E2C5CD8A0D2EF1DF0D4EF1DF06D
:103BA400DDEF1DF0000E2D6E000E2C6E010E0101D6
:103BB400766FDFEF1DF02C4A2D2A2B5009E13C0EC5
:103BC4002A5CD8A0E8EF1DF0EAEF1DF0F3EF1DF03A
:103BD400000E2B6E000E2A6E010E0101756FF5EFBB
:103BE4001DF02A4A2B2A120021502210D8B4FDEFCE
:103BF4001DF0FFEF1DF008EF1EF021502210D8A495
:103C040006EF1EF008EF1EF00DEF1EF01F5070ECD3
:103C140024F05CEF1EF020EE0AF02150D926225049
:103C2400DA22DE50DE10D8B41AEF1EF01CEF1EF0BC
:103C340038EF1EF020EE0AF02150D9262250DA2265
:103C440010EE03F02150E1262250E222DE50E65C21
:103C5400E650800A0001646FDE50800A6459D8B0CF
:103C640036EF1EF038EF1EF05CEF1EF020EE03F08E
:103C74002150D9262250DA22DECF60F0DDCF61F068
:103C840021C0D9FF22C0DAFFDECF62F0DDCF63F0BE
:103C9400000160516225D96E61516321DA6E1FC043
:103CA400DFFF20EE03F02150D9262250DA22DE2A4B
:103CB400000EDD221200000E00016A6F000E696F13
:103CC40062C0D9FF63C0DAFFDECFF6FFDDCFF7FFB6
:103CD4000800F5502A0AD8A472EF1EF074EF1EF003
:103CE400A9EF1EF062C0D9FF63C0DAFFDE2A000E1E
:103CF400DD2264C0D9FF65C0DAFFDFCF66F0020EB3
:103D0400DE26DFCF67F0000EDD2266C0D9FF67C074
:103D1400DAFFDECF69F0DDCF6AF0BDEF1EF069C0D7
:103D24001FF06AC020F0000E226E0A0E216ED1EC44
:103D340023F0000168511F24696F000E20206A6F70
:103D440062C0D9FF63C0DAFFDE2A000EDD2262C042
:103D5400D9FF63C0DAFFDECFF6FFDDCFF7FF08003F
:103D6400F550D00F686F090E6865BBEF1EF0BDEF0C
:103D74001EF091EF1EF069C062F06AC063F0120099
:103D8400000E0001616F22BECCEF1EF0CAEF1EF0E0
:103D9400D2EF1EF0216C221ED8B0222A010E616FD0
:103DA40020BED9EF1EF0D7EF1EF0DFEF1EF01F6C20
:103DB400201ED8B0202A010E611B000E636F000E76
:103DC400626F21502210D8B4EAEF1EF0ECEF1EF01F
:103DD40014EF1FF0010E606FF4EF1EF0D89021363F
:103DE4002236602B22AEF9EF1EF0FBEF1EF0F0EF4F
:103DF4001EF0D8906237633721501F5C2250205840
:103E0400D8A007EF1FF009EF1FF00EEF1FF02150AD
:103E14001F5E2250205A6281D89022322132602FB4
:103E2400FBEF1EF06151D8B41AEF1FF01CEF1FF026
:103E340020EF1FF0626D631FD8B0632B62C01FF0C8
:103E440063C020F0120030000000000000000000F9
:103E5400000000000000000000000000000000005E
:103E6400000000000000000000000000000000004E
:103E7400000000000000000000000000000000003E
:103E8400000000000000000000000000000000002E
:103E9400000000000000000000000000000000001E
:103EA40030000000000000000000000000000000DE
:103EB40000000000000000000000000000000000FE
:103EC40000000000000000000000000000000000EE
:103ED40000000000000000000000000000000000DE
:103EE40000000000000000000000000000000000CE
:103EF40000000000000000000000000E0001616FDF
:103F040020BE89EF1FF087EF1FF08FEF1FF01F6CAB
:103F1400201ED8B0202A010E616F22BE96EF1FF03A
:103F240094EF1FF09AEF1FF0216C221ED8B0222AC2
:103F340021502210D8B4A1EF1FF0A3EF1FF0C7EF58
:103F44001FF0010E606FABEF1FF0D89021362236C0
:103F5400602B22AEB0EF1FF0B2EF1FF0A7EF1FF0FF
:103F640021501F5C22502058D8A0BBEF1FF0BDEF9A
:103F74001FF0C1EF1FF021501F5E2250205AD8902D
:103F840022322132602FB2EF1FF06151D8B4CDEF4D
:103F94001FF0CFEF1FF0D3EF1FF01F6C201ED8B01F
:103FA400202A1FC01FF020C020F0120036A0DDEF31
:103FB4001FF0DFEF1FF0E9EF1FF06EC065F06FC078
:103FC40066F06CC067F06DC068F01CEC23F0000173
:103FD40071BFEFEF1FF0F1EF1FF0F7EF1FF070C0AC
:103FE40074F071C075F0FBEF1FF0000E756F000EDA
:103FF400746F000E736F000E726F0EEF20F0000EE0
:10400400206E200E1F6E6CC021F06DC022F0F6EC05
:104014001DF00001724B732B7451725D7351800A51
:10402400236E7551800A2358D8A01BEF20F01DEF92
:1040340020F001EF20F036B022EF20F024EF20F042
:104044002EEF20F06EC065F06FC066F06CC067F0B4
:104054006DC068F01CEC23F01200000E0001601526
:104064001F6E000E6115206E800E6215216E7F0E8C
:104074006315226E1F50201021102210D8A445EF82
:1040840020F047EF20F04FEF20F0000E606F000E9D
:10409400616F000E626F000E636F000E64151F6E79
:1040A400000E6515206E800E6615216E7F0E671555
:1040B400226E1F50201021102210D8A464EF20F08B
:1040C40066EF20F06EEF20F0000E646F000E656F57
:1040D400000E666F000E676F645160190FE1655141
:1040E40061190CE16651621909E167516319D8B489
:1040F4007EEF20F080EF20F083EF20F0D89084EF63
:1041040020F0D8801200000E1F6E000E206E000EEC
:10411400216E000E226E0001645165116611671153
:10412400D8B497EF20F099EF20F0CFEF20F0010EF4
:10413400236EA3EF20F0D89064376537663767376E
:10414400232A67AFA8EF20F0AAEF20F09DEF20F01C
:10415400D8901F362036213622366451605D655171
:1041640061596651625967516359D8A0BCEF20F078
:10417400BEEF20F0C7EF20F06451605F6551615BD2
:104184006651625B6751635B1F80D8906733663307
:1041940065336433232EAAEF20F01FC060F020C0E3
:1041A40061F021C062F022C063F01200000ED66EEE
:1041B400F294C8C101F0C9C102F0CAC103F0CBC175
:1041C40004F0000E056E800E066E0C0E076E440E93
:1041D400086E31EC14F001C03AF102C03BF103C0A7
:1041E4003CF104C03DF13AC101F03BC102F03CC1D5
:1041F40003F03DC104F083EC1CF00150345C025028
:104204003558D8A008EF21F00AEF21F013EF21F080
:10421400000E356E000E346E010E0101746F15EF41
:1042240021F0344A352A1200000E0001626F000E9C
:10423400616F21502210D8B422EF21F024EF21F035
:104244004CEF21F0010E606F2CEF21F0D890213655
:104254002236602B22AE31EF21F033EF21F028EF2C
:1042640021F0D8906137623721501F5C22502058CA
:10427400D8A03FEF21F041EF21F046EF21F021508B
:104284001F5E2250205A6181D89022322132602F41
:1042940033EF21F061C01FF062C020F012004A0E1B
:1042A400F66E3E0EF76E000EF86E02EE00F010EEA3
:1042B400B4F00900F5CFEEFFE550E150FAE1DE0E6F
:1042C400F66E480EF76E000EF86E0900F5CFF8F1A1
:1042D4000900F5CFF9F101EE00F0CC0EEE6AE80624
:1042E400FDE10001FF6BFE6BFD6BFC6BFB6BFA6B7E
:1042F40000EE24F01D0EEE6AE806FDE141904192C5
:10430400000EF86E000158EF09F022BE96EF21F07E
:1043140022502110201006E11F04D8B094EF21F0A0
:1043240096EF21F0B2EF21F01FC060F020C061F0E1
:1043340021C062F022C063F00001601F611F621F90
:10434400631F602B000E61236223632360C01FF090
:1043540061C020F062C021F063C022F0BAEF21F006
:104364001FC01FF020C020F021C021F022C022F085
:10437400120021502210D8B4C2EF21F0C4EF21F072
:10438400E8EF21F0010E236ECCEF21F0D890213616
:104394002236232A22AED1EF21F0D3EF21F0C8EF49
:1043A40021F021501F5C22502058D8A0DCEF21F0CE
:1043B400DEEF21F0E2EF21F021501F5E2250205A5F
:1043C400D89022322132232ED3EF21F01FC01FF0C8
:1043D40020C020F0120082B0F2EF21F0F6EF21F0BD
:1043E4001F6A1F2AF7EF21F01F6A82B2FCEF21F047
:1043F400FFEF21F0010E00EF22F0000E020DF3CFCB
:1044040020F082B408EF22F00BEF22F0010E0CEF43
:1044140022F0000E040DF3CF21F082BA14EF22F043
:1044240017EF22F0010E18EF22F0000E080DF350E2
:10443400212420241F24120082B823EF22F027EF26
:1044440022F01F6A1F2A28EF22F01F6A80B22DEF84
:1044540022F030EF22F0010E31EF22F0000E020DB7
:10446400F3CF20F080B839EF22F03CEF22F0010EB8
:104474003DEF22F0000E040DF3CF21F080BA45EF9A
:1044840022F048EF22F0010E49EF22F0000E080D51
:10449400F350212420241F24120065EF22F020C0B1
:1044A400F6FF21C0F7FFF86A070EF76403D008008F
:1044B400F55005D0F6CFE1FFF7CFE2FFE75040EC2F
:1044C40024F0204A212A20C0F6FF21C0F7FFF86A11
:1044D400070EF76403D00800F55005D0F6CFE1FFCE
:1044E400F7CFE2FFE7500009D8A47BEF22F07DEF7D
:1044F40022F051EF22F01200CEC1F6F0CFC1F7F056
:1045040093EF22F0CCC1E5F0CDC1E6F0F60E000148
:10451400E76F000EE86FD0C1E9F0D1C1EAF0ECEC2E
:104524000FF0F6C0F6FFF7C0F7FF0800F5500009DA
:10453400D8A49FEF22F0A1EF22F084EF22F0000E26
:104544000101CD6F000ECC6F120062C022F063C077
:1045540023F060C020F061C021F0C1EF22F022C03E
:10456400D9FF23C0DAFFDF501F6E224A232A20C05E
:10457400D9FF21C0DAFF1FC0DFFF204A212A000132
:104584006407D8A06507642906E16529D8A4CDEF9E
:1045940022F0CFEF22F0B1EF22F01200D60E01018B
:1045A400EA6F010EEB6FD2C1ECF1D3C1EDF1000E55
:1045B400F06F000EEF6F000EF76F000EF66FEC0E4B
:1045C400CC6F010ECD6FD4C1CEF1D5C1CFF1EA0EBF
:1045D400D06F010ED16F7EEC22F00101EF51D22594
:1045E400D96EF051D321DA6EDF6A1200000E000199
:1045F400871B000E881B000E891B800E8A1B83C03C
:1046040060F084C061F085C062F086C063F087C04A
:1046140064F088C065F089C066F08AC067F08BECEE
:104624000DF060C083F061C084F062C085F063C0A7
:1046340086F01200000E00016B6F000E6A6F2FEF00
:1046440023F069C01FF0206A67C021F068C022F01F
:10465400F6EC1DF000016A4B6B2B6A516525D96E8F
:104664006B516621DA6EDF50696F6951D8A43DEF52
:1046740023F03FEF23F023EF23F0120021C060F07A
:1046840022C061F01FC062F020C063F060C0F6FF7A
:1046940061C0F7FF0001604B612B62C0D9FF63C0AA
:1046A400DAFF624B632B0800F5CFDFFFDF50D8A49D
:1046B4005EEF23F060EF23F048EF23F012000001D7
:1046C40063BF6FEF23F0635106E16205D8B06DEF6D
:1046D40023F06FEF23F07DEF23F062C064F063C03A
:1046E40065F0641F651F644B652B64C062F065C090
:1046F40063F081EF23F062C062F063C063F01200E4
:10470400E5EC23F067EC24F0F9EC23F0000E000153
:104714006A6F000E6B6F800E6C6F3F0E6D6F5EECF8
:1047240024F018EC24F055EC24F0BBEC23F027EC37
:1047340024F0D08EF28EF28C12001F502010211023
:104744002210D8B4A8EF23F0AAEF23F0B2EF23F09D
:10475400000E1F1A000E201A000E211A800E221AB3
:104764001FC01FF020C020F021C021F022C022F081
:104774001200C188C18AC150F00B0E09C16EC08EEF
:10478400C050C70B3009C06EC050F80B0509C06E8D
:10479400C294C296C298C29AC280C28212001F50AA
:1047A4002102F3CF60F0F4CF61F01F502202F350E6
:1047B4000001612720502102F350612760C01FF0DF
:1047C40061C020F0120093809392938493969398FF
:1047D400938A9480948294846F86948C948E92802D
:1047E4009282928492869288928A929C1200D59C9C
:1047F400D59AD596D550F80B0209D56E000ED76E12
:10480400000ED66ED58EF294F28AF1941200C28212
:10481400C2B20FEF24F011EF24F00AEF24F0C450D9
:10482400216EC3501F6E21C020F01200000ECA6E0C
:10483400CA94030ECA12CB68780ECA129E929D8245
:10484400CA849F92000ECC6E12003F0EC76E000EFB
:10485400C66EC688C79EC79CC69EC680C692C694AE
:10486400C69612001F6E1FC0C9FFC7A03CEF24F0FC
:104874003EEF24F037EF24F0C95012001F6E9EA8BB
:1048840046EF24F048EF24F041EF24F01FC0ADFFC1
:104894001200C968C7A051EF24F053EF24F04CEF85
:1048A40024F0C9501200B8967F0EAF6EAC84AC8A67
:1048B400AB8E9F9A9D8A12006AC0C8F16BC0C9F181
:1048C4006CC0CAF16DC0CBF112008F0ED3166F8687
:0E48D4006D9612000600419211009A19120012
:020000040020DA
:08000000FFFFFFFFFFFFFFFF00
:020000040030CA
:0E000000000C191EFF8181FF0FC00FE00F40A2
:00000001FF
