:0400000031EF00F0EC
:0600080041820DED14F031
:100018004180D8CF1AF0E8CF1BF0E0CF1CF0F3CF27
:100028001DF0F4CF1EF0F29EF2B4C9EC11F09EB2AE
:10003800DDEC0FF09EBA9DAA03D0AECF39F09E9AA0
:10004800F28E1EC0F4FF1DC0F3FF1CC0E0FF1BC0F2
:0E005800E8FF1AC0D8FF4190100053EF12F0DD
:10080000002530316425303264202B2530347520AA
:100810002B25303475202B25303475202B25303492
:10082000752063002B25303475200A0D000A000066
:100830001EEC13F0C68AAB9E949EFF0EF6EC13F0EE
:10084000FF0EF6EC13F0FF0EF6EC13F0FF0EF6ECD5
:1008500013F0FF0EF6EC13F0010E0001B56F000E61
:10086000B26F000EB16F000EB06FC69AAB8E948E51
:10087000F28EF28C010EBB6F000E0101C36F0001FE
:10088000BB51D8B452D0B051D8B44FD0000EBB6FCA
:10089000000EB06FC69AAB8E948E000E0101C56F2C
:1008A0003C0EC525D96EDA6A010EDA22DF50FDEC66
:1008B00013F00101C52B1C0EC565F2D7000EC56FE4
:1008C000980EC525D96EDA6A010EDA22DF50FDECEA
:1008D00013F00101C52B070EC565F2D72D0E206E52
:1008E0002050D8A4080E216E2AEC12F02B0E206E98
:1008F0002050D8A4080E216E2AEC12F00101C35139
:10090000D8B40ED0000E206E010E216E2AEC12F02B
:100910002B0E206E2050D8A4080E216E2AEC12F067
:10092000000E0001B26F000EB16FC051D8B44BD2AF
:10093000000EC06F81AA06D0C251D8B405D0C12B19
:10094000000E01D0010EC26FC351D8B4A5D0D9ECAE
:1009500013F01F507C2720507D23000E7E23000EB5
:100960007F230E0EB86596D0000EB86F7CC01FF0C6
:100970007DC020F07EC021F07FC022F0000E13EC7D
:100980000EF01FC0EBF020C0ECF021C0EDF022C053
:10099000EEF0000EEF6F000EF06F700EF16F410E73
:1009A000F26FFCEC0AF0EBC078F0ECC079F0EDC02F
:1009B0007AF0EEC07BF078C0F7F079C0F8F07AC03A
:1009C000F9F07BC0FAF021EC0FF0F7C0AEF0F8C000
:1009D000AFF0000E7C6F000E7D6F000E7E6F000E7C
:1009E0007F6F000ED66F000ED76F700ED86F410E5E
:1009F000D96FAEC01FF0AFC020F0216A226A000E8E
:100A000013EC0EF01FC0D2F020C0D3F021C0D4F000
:100A100022C0D5F0D0EC07F0D2C0EBF0D3C0ECF0A0
:100A2000D4C0EDF0D5C0EEF0000EEF6F000EF06F09
:100A3000800EF16F440EF26FFCEC0AF0EBC068F030
:100A4000ECC069F0EDC06AF0EEC06BF0000ED66F3E
:100A5000000ED76F7A0ED86F430ED96F68C0D2F0F0
:100A600069C0D3F06AC0D4F06BC0D5F0D0EC07F009
:100A7000D2C0F7F0D3C0F8F0D4C0F9F0D5C0FAF086
:100A800021EC0FF0F7C08CF0F8C08DF0000EC36FB2
:100A9000010EB26FC282B82BB451D8B494D1000EFB
:100AA000B46FC68AAB9E949E000E0101C66F000E05
:100AB0000001746F000E756F000E766F000E776F79
:100AC000200EF6EC13F00F0EF6EC13F0100EF6EC11
:100AD00013F0400EF6EC13F081B4FED7000E0101C6
:100AE000C66F1FD0380EF6EC13F081B4FED7000E9F
:100AF0000001A36F000EA26F03EC14F0A36FA26BB2
:100B000003EC14F0FD6FFD51A227000EA323A251A8
:100B10007427A3517523000E7623000E772301015D
:100B2000C62B0E0EC665DED7000E0001706F000EDC
:100B3000716F000E726F000E736F210EF6EC13F0E2
:100B40000F0EF6EC13F0110EF6EC13F0400EF6EC6F
:100B500013F081B4FED7000E0101C66F1FD0390E0D
:100B6000F6EC13F081B4FED7000E0001A16F000E69
:100B7000A06F03EC14F0A16FA06B03EC14F0FD6FF9
:100B8000FD51A027000EA123A0517027A151712370
:100B9000000E7223000E73230101C62B0E0EC665D4
:100BA000DED7000E00016C6F000E6D6F000E6E6FD1
:100BB000000E6F6F230EF6EC13F00F0EF6EC13F031
:100BC000130EF6EC13F0400EF6EC13F081B4FED7E2
:100BD000000E0101C66F1FD03B0EF6EC13F081B47E
:100BE000FED7000E00019F6F000E9E6F03EC14F005
:100BF0009F6F9E6B03EC14F0FD6FFD519E27000E5E
:100C00009F239E516C279F516D23000E6E23000E73
:100C10006F230101C62B0E0EC665DED774C0C8F067
:100C200075C0C9F076C0CAF077C0CBF00F0E0001D6
:100C3000CC6F000ECD6F000ECE6F000ECF6F11EC9B
:100C400011F0C8C09CF0C9C09DF070C0C8F071C060
:100C5000C9F072C0CAF073C0CBF00F0ECC6F000E9B
:100C6000CD6F000ECE6F000ECF6F11EC11F0C8C02B
:100C70009AF0C9C09BF06CC0C8F06DC0C9F06EC0DE
:100C8000CAF06FC0CBF00F0ECC6F000ECD6F000E10
:100C9000CE6F000ECF6F11EC11F0C8C098F0C9C034
:100CA00099F09AC094F09BC095F0460EEF6FB60E87
:100CB000F06F510EF16F410EF26F9CC01FF09DC09E
:100CC00020F0216A226A000E13EC0EF01FC0EBF038
:100CD00020C0ECF021C0EDF022C0EEF0FCEC0AF0F8
:100CE000EBC0F7F0ECC0F8F0EDC0F9F0EEC0FAF0B0
:100CF00021EC0FF0F7C09CF0F8C09DF0460EEF6FAE
:100D0000B60EF06F510EF16F410EF26F9AC01FF0E8
:100D10009BC020F0216A226A000E13EC0EF01FC067
:100D2000EBF020C0ECF021C0EDF022C0EEF0FCECC6
:100D30000AF0EBC0F7F0ECC0F8F0EDC0F9F0EEC04F
:100D4000FAF021EC0FF0F7C09AF0F8C09BF0460ED5
:100D5000EF6FB60EF06F510EF16F410EF26F98C04B
:100D60001FF099C020F0216A226A000E13EC0EF0E9
:100D70001FC0EBF020C0ECF021C0EDF022C0EEF07F
:100D8000FCEC0AF0EBC0F7F0ECC0F8F0EDC0F9F0C5
:100D9000EEC0FAF021EC0FF0F7C098F0F8C099F02F
:100DA000010EB16F010EB36F8AB603D0FD6BFD2B40
:100DB00002D00001FD6BFD47FD47FD478A50FD193C
:100DC000F70BFD198A6EBF51D8B407D0000EBF6F64
:100DD00081A402D08A8801D08A980001BE51D8B47B
:100DE00082D0000EBE6FBDEC12F00001B96FDEECD8
:100DF00012F00001BA6F000ED66F000ED76F400ED2
:100E0000D86F400ED96FBA511F6E206A216A226ACC
:100E1000000E13EC0EF01FC0D2F020C0D3F021C0A2
:100E2000D4F022C0D5F0D0EC07F0D2C0F7F0D3C098
:100E3000F8F0D4C0F9F0D5C0FAF021EC0FF0F7517A
:100E4000B66F000E0101C46F0001B251D8B448D092
:100E5000B151D8B445D0000E976F000E966F3C0E7E
:100E60000101A66F010EA76F010EA86FB7C0A9F10F
:100E7000AA6BB9C0ABF1AC6B9CC0ADF19DC0AEF13B
:100E80009AC0AFF19BC0B0F198C0B1F199C0B2F176
:100E90008CC0B3F18DC0B4F178EC12F0000EC46FC9
:100EA0001C0EC46501D010D03C0EC425D96EDA6A80
:100EB000010EDA22DF500001FD6FFD519627000E72
:100EC00097230101C42BECD7980EA66F010EA76FD4
:100ED000240EA86F96C0A9F197C0AAF178EC12F081
:100EE000010E0001B06FBD51D8B454D0000EBD6FDB
:100EF000010EC36F010EB46FB351D8B44BD0000EC6
:100F0000B36F9A0E945D190E9559D8A019D0924BD3
:100F1000932B935104E16F0E925DD8A03BD0000E4D
:100F2000936F000E926F4B0ED26F590ED36F860ED9
:100F3000D46F3C0ED56FEDEC13F0010EB76F2AD0D5
:100F4000000EB76F000E936F000E926FDEEC12F082
:100F50000001BA6FBA51D8A40BD04B0ED26F590E04
:100F6000D36F860ED46F3C0ED56FEDEC13F012D01C
:100F7000B6511F6E206A216A226A000E13EC0EF031
:100F80001FC0D2F020C0D3F021C0D4F022C0D5F0D1
:100F9000EDEC13F0BC51D8B472D4000EBC6F6FD41A
:100FA000D551800BDE6FD551D525E06FD4BFE081E0
:100FB000E051D8B40DD0E029D8A408D0000ED26FEB
:100FC000000ED36F000ED46F000ED56FD48F08D0F3
:100FD000000ED26F000ED36F000ED46F000ED56FCF
:100FE000D951800BDE1BD951D925DF6FD8BFDF81E6
:100FF000DF51D8B40DD0DF29D8A408D0000ED66FA9
:10100000000ED76F000ED86F000ED96FD88F08D0A2
:10101000000ED66F000ED76F000ED86F000ED96F7E
:10102000DF51D8B403D0E051D8A409D0000ED26F5C
:10103000000ED36F000ED46F000ED56F1200D85182
:10104000D203F3CFE9F0F4CFEAF0E951E16FE26BBC
:10105000E36BE46BEA51E56FE66BE76BE86BD75146
:10106000D303F3CFE9F0F4CFEAF0E951E127000E22
:10107000E223E323E423EA51E527000EE623E723F6
:10108000E823D651D403F3CFE9F0F4CFEAF0E951E5
:10109000E127000EE223E323E423EA51E527000ED3
:1010A000E623E723E823E3C0E4F0E2C0E3F0E1C095
:1010B000E2F0E16BD651D303F3CFE9F0F4CFEAF0DD
:1010C000E951E127EA51E223000EE323000EE42375
:1010D000D751D203F3CFE9F0F4CFEAF0E951E12799
:1010E000EA51E223000EE323000EE423E3C0E4F020
:1010F000E2C0E3F0E1C0E2F0E16BD651D203F3CFFE
:10110000E9F0F4CFEAF0E951E127EA51E223000ED9
:10111000E323000EE423D851D303F3CFE9F0F4CF57
:10112000EAF0E951E527EA51E623000EE723000E35
:10113000E823D751D403F3CFE9F0F4CFEAF0E95133
:10114000E527EA51E623000EE723000EE823D851F5
:10115000D403F3CFE9F0F4CFEAF0E951DA6FEA51C2
:10116000DB6FDC6BDD6BDCC0DDF0DBC0DCF0DAC03C
:10117000DBF0DA6BDA51E527DB51E623DC51E723BC
:10118000DD51E823E451E527000EE623E723E823B9
:10119000E3C0E4F0E2C0E3F0E1C0E2F0E16BDF5174
:1011A000E0C0DAF0DB6BDA27000EDB23820EDA25F3
:1011B000E96FFF0EDB21EA6F0FD0D890E537E637F5
:1011C000E737E837E4BFE581D890E137E237E33726
:1011D000E437E907D8A0EA07E7AFEFD7000EDF6FE3
:1011E000E4AF17D0FF0EE115DA6FFF0EE215DB6FEB
:1011F000FF0EE315DC6F7F0EE415DD6FDA51DB11B6
:10120000DC11DD11D8B403D0010EDF6F02D0E5B1DF
:10121000FBD7DF51D8B41FD0010EE527000EE6231F
:10122000E723E823E8A117D0E5C0DAF0E6C0DBF059
:10123000E7C0DCF0E8C0DDF0DD35DD33DC33DB3387
:10124000DA33DAC0E5F0DBC0E6F0DCC0E7F0DDC0A1
:10125000E8F0E94BEA2BEABF0DD0EA5103E1E929B6
:10126000D8A008D0000EE56F000EE66F800EE76F85
:101270007F0E20D0EABF05D0EA510EE1E905D8B0D3
:101280000BD0000EE56F000EE66F000EE76F000E4C
:10129000E86F000EDE6F0FD0E9C0E0F0FF0EE5173B
:1012A000FF0EE6177F0EE717000EE817E0B1E78F95
:1012B000D890E031E86FDE51E813E5C0D2F0E6C027
:1012C000D3F0E7C0D4F0E8C0D5F012000450800B92
:1012D0000D6E04500424136E03BE13801350D8B453
:1012E0000DD01328D8A408D0000E016E000E026E97
:1012F000000E036E000E046E038E08D0000E016E09
:10130000000E026E000E036E000E046E0850800B7D
:101310000D1A085008240E6E07BE0E800E50D8B469
:101320000DD00E28D8A408D0000E056E000E066E53
:10133000000E076E000E086E078E08D0000E056EB8
:10134000000E066E000E076E000E086E0E50D8B42A
:1013500003D01350D8A409D0000E016E000E026E07
:10136000000E036E000E046E120007500102F3CF50
:1013700018F0F4CF19F018500F6E106A116A126A43
:101380001950146E156A166A176A06500202F3CFD6
:1013900018F0F4CF19F018500F26000E1022112269
:1013A000122219501426000E15221622172205505B
:1013B0000302F3CF18F0F4CF19F018500F26000EE7
:1013C00010221122122219501426000E1522162264
:1013D000172211C012F010C011F00FC010F00F6AE8
:1013E00005500202F3CF18F0F4CF19F018500F2671
:1013F00019501022000E1122000E12220650010276
:10140000F3CF18F0F4CF19F018500F26195010220E
:10141000000E1122000E122211C012F010C011F0A5
:101420000FC010F00F6A05500102F3CF18F0F4CF8F
:1014300019F018500F2619501022000E1122000E1C
:10144000122207500202F3CF18F0F4CF19F018500F
:10145000142619501522000E1622000E17220650CF
:101460000302F3CF18F0F4CF19F0185014261950D6
:101470001522000E1622000E172207500302F3CF8A
:1014800018F0F4CF19F01850096E19500A6E0B6A53
:101490000C6A0BC00CF00AC00BF009C00AF0096A14
:1014A000095014260A5015220B5016220C501722F0
:1014B00012501426000E15221622172211C012F007
:1014C00010C011F00FC010F00F6A0E5013C009F0D9
:1014D0000A6A0926000E0A22820E0924186EFF0EDF
:1014E0000A20196E0FD0D8901436153616361736D6
:1014F00012BE1480D8900F361036113612361806E8
:10150000D8A0190616AEEFD7000E0E6E12AE17D089
:10151000FF0E0F14096EFF0E10140A6EFF0E111449
:101520000B6E7F0E12140C6E09500A100B100C106B
:10153000D8B403D0010E0E6E02D014B0FBD70E50FB
:10154000D8B41FD0010E1426000E15221622172221
:1015500017A017D014C009F015C00AF016C00BF080
:1015600017C00CF00C340C320B320A32093209C0AD
:1015700014F00AC015F00BC016F00CC017F0184A92
:10158000192A19BE0DD0195003E11828D8A008D087
:10159000000E146E000E156E800E166E7F0E20D09B
:1015A00019BE05D019500EE11804D8B00BD0000EAA
:1015B000146E000E156E000E166E000E176E000EE5
:1015C0000D6E0FD018C013F0FF0E1416FF0E151677
:1015D0007F0E1616000E171613B0168ED890133005
:1015E000176E0D50171214C001F015C002F016C08E
:1015F00003F017C004F01200EE51800B0101A56F3B
:101600000001EE51EE250101AC6F0001EDAF02D0FB
:101610000101AC810101AC51D8B40FD0AC29D8A4E0
:1016200009D0000E0001EB6F000EEC6F000EED6FA5
:10163000000EEE6F0001ED8F07D0000E0001EB6F82
:10164000000EEC6F000EED6F000EEE6FF251800B8E
:101650000101A51B0001F251F2250101AD6F00014E
:10166000F1AF02D00101AD810101AD51D8B40FD06D
:10167000AD29D8A409D0000E0001EF6F000EF06F65
:10168000000EF16F000EF26F0001F18F07D0000E17
:101690000001EF6F000EF06F000EF16F000EF26FA1
:1016A000EF51F011F111F211D8A419D0000EEB6F27
:1016B000000EEC6F000EED6F000EEE6F800EED135E
:1016C0007F0EEE130101A5510001EE13EBC0EBF00C
:1016D000ECC0ECF0EDC0EDF0EEC0EEF01200010158
:1016E000AC51D8A40AD0000E0001EB6F000EEC6FD5
:1016F000000EED6F000EEE6F1200AD51ACC1F3F0B5
:101700000001F46BF35F000EF45B7F0EF325010123
:10171000A66F000E0001F4210101A76FEBC0A1F13B
:10172000ECC0A2F1EDC0A3F1EEC0A4F1000E0001E7
:10173000EB6F000EEC6F000EED6F000EEE6F000E03
:101740000101A86F000EA96F000EAA6F000EAB6F0B
:10175000000EAD6F3DD0AD51D8B416D0D890A137A2
:10176000A237A337A4370001D890EB37EC37ED3719
:10177000EE370101ABAF02D00001EB810101D8903F
:10178000A837A937AA37AB370001EF510101A15D96
:101790000001F0510101A2590001F1510101A359C9
:1017A0000001F2510101A459D8A011D0AB8D000164
:1017B000EF510101A15F0001F0510101A25B0001A5
:1017C000F1510101A35B0001F2510101A45BAD2BBA
:1017D000190EAD65C0D7A151A211A311A411D8B49F
:1017E00015D0A88113D0D890EB37EC37ED37EE3712
:1017F0000101ABAF02D00001EB810101D890A83705
:10180000A937AA37AB37A607D8A0A7070001EDAFC5
:10181000EAD7000E0101AD6FABAF1FD0FF0EA815C8
:101820000001F36FFF0E0101A9150001F46FFF0E17
:101830000101AA150001F56F7F0E0101AB15000132
:10184000F66FF351F411F511F611D8B404D0010E6E
:101850000101AD6F02D0EBB1FAD70101AD51D8B49F
:1018600021D0010E0001EB27000EEC23ED23EE2327
:10187000EEA118D0EBC0F3F0ECC0F4F0EDC0F5F041
:10188000EEC0F6F0F635F633F533F433F333F3C048
:10189000EBF0F4C0ECF0F5C0EDF0F6C0EEF00101B5
:1018A000A64BA72B0101A7BF11D0A75103E1A62981
:1018B000D8A00CD0000EA76FA669000E0001EB6F38
:1018C000000EEC6F000EED6F000EEE6F0101A7BF72
:1018D00005D0A75113E1A605D8B010D0000EA76F10
:1018E000000EA66F000E0001EB6F000EEC6F000EF5
:1018F000ED6F000EEE6F000E0101A56FA6C1ACF1F9
:10190000ACA103D00001ED8F02D00001ED9F0101D9
:10191000D890AC310001EE6FD5D6ED51D96EDA6AB0
:10192000DFCFF6FF080EF76E0800F550250AD8A4A1
:10193000C4D0ED51D96EDA6ADF2A000E256E000E92
:10194000246E24C036F026682768000EF36F000E60
:1019500009D03682ED51D96EDA6ADF2A19D0000E2D
:10196000F36F010EF26F14D0ED51D96EDA6ADFCF4A
:10197000F6FF080EF76E0800F550F06FF16BF151AD
:10198000000AD8A4ECD7F051300AD8B4E2D7E7D790
:10199000F251F311D8B4E8D7EDC0CAF0EEC0CBF0E5
:1019A000EFC0CCF02FEC10F0CAC024F0CBC025F073
:1019B00025AE05D03680246C251ED8B0252AED51E1
:1019C000D96EDA6ADF50F86FF8C0F6FF080EF76ECE
:1019D0000800F550640AD8B409D0F8C0F6FF080E24
:1019E000F76E0800F550690AD8A424D0EEC0D9FFDC
:1019F000EFC0DAFFDFCFF0F0020EDE26DFCFF1F02E
:101A0000000EDD22F0C0D9FFF1C0DAFFDECFF4F026
:101A1000DDCFF5F0ED51D96EDA6AF829DF6EEBC053
:101A2000DEF0ECC0DFF0F4C0E0F0F5C0E1F06FEC08
:101A30000DF01200F8C0F6FF080EF76E0800F55022
:101A4000750AD8A435D0EEC0D9FFEFC0DAFFDFCFDA
:101A5000F0F0020EDE26DFCFF1F0000EDD22F0C046
:101A6000D9FFF1C0DAFFDECFF4F0DDCFF5F0ED51B4
:101A7000D96EDA6AF829DF6E0BD0EBC0DEF0ECC06D
:101A8000DFF0F4C0E0F0F5C0E1F0B4EC0EF01200CD
:101A9000F8C0F6FF080EF76E0800F550F06FF16B16
:101AA000F151000AD8A404D0F051750AD8B4E5D792
:101AB000ED51D96EDA6ADF2A1200ED51D96EDA6A79
:101AC000DFCFF6FF080EF76E0800F5501F6E206A94
:101AD000EBC021F0ECC022F07FEC10F0E9D7E1AFD1
:101AE00002D0010E01D0000EE86FE851D8B404D046
:101AF000E06DE11FD8B0E12B27AE369227AE05D0BE
:101B0000000EE56F010EE46F04D026C0E4F027C09C
:101B1000E5F024C0E6F025C0E7F0E851D8B410D0D5
:101B2000E607D8A0E707E851D8A404D0000EE36F79
:101B30002B0E03D0000EE36F2D0EE26FE2C0E8F033
:101B4000000EEA6F1F0EE96F000E0101976F30D093
:101B5000E907D8A0EA07780EE925D96E010EEA2137
:101B6000DA6EE0C01FF0E1C020F0000E226E0A0E17
:101B7000216E91EC11F01FC0CAF020C0CBF057ECE1
:101B800013F0CA51300FDF6EE407D8A0E507E6076F
:101B9000D8A0E707E0C01FF0E1C020F0000E226EE1
:101BA0000A0E216ECFEC10F01FC0E0F020C0E1F073
:101BB0000001EABF19D0EA5103E1E905D8A014D029
:101BC000E051E111D8A4C4D7E5BF05D0E551C0E18B
:101BD000E405D8B0BDD7E7BF07D0E75103E1E6057C
:101BE000D8A002D036B2B4D7E851D8B40BD0E907A8
:101BF000D8A0EA07780EE925D96E010EEA21DA6E3F
:101C0000E8C0DFFFDEC0D4F0DFC0D5F0780EE925F4
:101C1000D66F010EEA21D76FE6C0D8F0E7C0D9F041
:101C200052EC11F01200CC6F0001CC51D8A422AEBE
:101C30001AD01FC0C8F020C0C9F021C0CAF022C00D
:101C4000CBF0C81FC91FCA1FCB1FC82B000EC9234A
:101C5000CA23CB23C8C0CEF0C9C0CFF0CAC0D0F0D1
:101C6000CBC0D1F008D01FC0CEF020C0CFF021C033
:101C7000D0F022C0D1F01F50201021102210D8A483
:101C800009D0000E1F6E000E206E000E216E000E99
:101C9000226E1200960ECD6F06D0CD2BD890D13388
:101CA000D033CF33CE33000ECE15C86F000ECF1514
:101CB000C96F000ED015CA6FFE0ED115CB6FC8517B
:101CC000C911CA11CB11D8B40DD0E7D7CD2B010E55
:101CD000CE27000ECF23D023D123D890D133D033B9
:101CE000CF33CE33000ECE15C86F000ECF15C96F9F
:101CF000000ED015CA6FFF0ED115CB6FC851C91198
:101D0000CA11CB11D8B407D0E1D7CD07D890CE37C0
:101D1000CF37D037D137D0BF03D0020ECD61F5D742
:101D2000CDA1D09FD890CD33CDC0C8F0C96BCA6BC0
:101D3000CB6BC8C0CBF0CA6BC96BC86BC851CE1394
:101D4000C951CF13CA51D013CB51D113CC51D8A400
:101D500022AE01D0D18FCEC01FF0CFC020F0D0C0B6
:101D600021F0D1C022F0120027AE369227AE05D066
:101D7000000EE36F010EE26F04D026C0E2F027C030
:101D8000E3F024C0E4F025C0E5F0000EE76F1F0E7D
:101D9000E66F000E0101976F2AD0E607D8A0E7078B
:101DA000780EE625D96E010EE721DA6EE0C01FF04D
:101DB000E1C020F0000E226E0A0E216E9CEC12F0A3
:101DC0001F50300FDF6EE207D8A0E307E407D8A06A
:101DD000E507E0C01FF0E1C020F0000E226E0A0E01
:101DE000216E01EC12F01FC0E0F020C0E1F0000114
:101DF000E651E711D8B414D0E051E111D8A4CDD701
:101E0000E3BF05D0E351C9E1E205D8B0C6D7E5BFCD
:101E100007D0E55103E1E405D8A002D036B2BDD722
:101E2000DEC0D4F0DFC0D5F0780EE625D66F010E07
:101E3000E721D76FE4C0D8F0E5C0D9F052EC11F03B
:101E40001200F935FA35FC6FFC51D8A409D0000E08
:101E5000F76F000EF86F000EF96F000EFA6F1200A8
:101E6000F7C0AEF1F8C0AFF1F9C0B0F1FAC0B1F10E
:101E7000200E06D00101D890B133B033AF33AE336A
:101E8000E82EF8D7AE510001FB6FF98FFF0EF71760
:101E9000FF0EF817FF0EF917000EFA17960EFC5FEB
:101EA000FCAF0DD0FC51800A970FD8A0D0D7D890A6
:101EB000FA33F933F833F733FC3FF9D70DD01F0E5F
:101EC000FC6507D0C4D7D890F737F837F937FA3719
:101ED000FC07FC51D8A4F7D7FB51D8B408D0FA1F9F
:101EE000F91FF81FF76D000EF823F923FA23F7C046
:101EF000F7F0F8C0F8F0F9C0F9F0FAC0FAF0120003
:101F0000033404340A6E0A50D8A409D0000E016EBE
:101F1000000E026E000E036E000E046E120001C071
:101F200005F002C006F003C007F004C008F0200E60
:101F300005D0D8900832073206320532E82EF9D79C
:101F40000550096E038EFF0E0116FF0E0216FF0EDE
:101F50000316000E0416960E0A5E0AAE0DD00A5045
:101F6000800A970FD8A0D2D7D89004320332023219
:101F700001320A3EF9D70DD01F0E0A6407D0C6D72A
:101F8000D89001360236033604360A060A50D8A421
:101F9000F7D70950D8B408D0041E031E021E016CE6
:101FA000000E02220322042201C001F002C002F04E
:101FB00003C003F004C004F012009E92335004E109
:101FC000030E325CD8A008D0000E336E000E326EC5
:101FD000010E0001C06F02D0324A332A315004E1B1
:101FE000080E305CD8A008D0000E316E000E306EA6
:101FF000010E0001BF6F02D0304A312A2F5004E198
:102000000F0E2E5CD8A008D0000E2F6E000E2E6E84
:10201000010E0001BE6F02D02E4A2F2A2D5004E17E
:102020001E0E2C5CD8A008D0000E2D6E000E2C6E5B
:10203000010E0001BD6F02D02C4A2D2A2B5004E165
:102040003C0E2A5CD8A008D0000E2B6E000E2A6E23
:10205000010E0001BC6F12002A4A2B2A1200000E4A
:10206000D16F000ED06FCA51D96EDA6ADFCFF6FF9A
:10207000080EF76E0800F5502A0AD8A42DD0CA51D0
:10208000D96EDA6ADF2ACBC0D9FFCCC0DAFFDFCF46
:10209000CDF0020EDE26DFCFCEF0000EDD22CDC069
:1020A000D9FFCEC0DAFFDECFD0F0DDCFD1F022D025
:1020B000D0C01FF0D1C020F0000E226E0A0E216E9B
:1020C0009AEC13F0CF511F24D06F000E2020D16F57
:1020D000CA51D96EDA6ADF2ACA51D96EDA6ADFCFFD
:1020E000F6FF080EF76E0800F550D00FCF6F090EFF
:1020F000CF65DED7D0C0CAF0D1C0CBF012002150DE
:102100002210D8B404D021502210D8A404D01F50DB
:1021100011EC14F0120020EE0AF02150D9262250C2
:10212000DA22DE50DE10D8B416D020EE0AF02150AC
:10213000D9262250DA2210EE03F02150E126225057
:10214000E222DE50E65CE650800ACC6FDE50800A68
:10215000CC59D8B0120020EE03F02150D9262250DD
:10216000DA22DECFC8F0DDCFC9F021C0D9FF22C00E
:10217000DAFFDECFCAF0DDCFCBF0C851CA25D96E69
:10218000C951CB21DA6E1FC0DFFF20EE03F02150D2
:10219000D9262250DA22DE2A000EDD221200000E9D
:1021A000C96F22AE06D0216C221ED8B0222A010EA1
:1021B000C96F20AE06D01F6C201ED8B0202A010E99
:1021C000C91B000ECB6F000ECA6F21502210D8B46D
:1021D0001CD0010EC86F04D0D89021362236C82BEF
:1021E00022AEFAD7D890CA37CB3721501F5C225085
:1021F0002058D8A005D021501F5E2250205ACA81F5
:10220000D89022322132C82FEDD7C951D8B404D08A
:10221000CA6DCB1FD8B0CB2BCAC01FF0CBC020F0EB
:102220001200000E1F6E000E206E000E216E000EBA
:10223000226ECC51CD11CE11CF11D8B42AD0010EBF
:10224000236E06D0D890CC37CD37CE37CF37232A60
:10225000CFAFF8D7D8901F36203621362236CC5152
:10226000C85DCD51C959CE51CA59CF51CB59D8A00B
:1022700009D0CC51C85FCD51C95BCE51CA5BCF519B
:10228000CB5B1F80D890CF33CE33CD33CC33232ECE
:10229000E1D71FC0C8F020C0C9F021C0CAF022C0D9
:1022A000CBF0120036A00AD0D6C0CDF0D7C0CEF009
:1022B000D4C0CFF0D5C0D0F03BEC13F0D9BF05D0DF
:1022C000D8C0DCF0D9C0DDF004D0000EDD6F000E08
:1022D000DC6F000EDB6F000EDA6F0CD0000E206E8C
:1022E000200E1F6ED4C021F0D5C022F07FEC10F07C
:1022F000DA4BDB2BDC51DA5DDB51800A236EDD51DA
:10230000800A2358D8A0EAD736B01200D6C0CDF044
:10231000D7C0CEF0D4C0CFF0D5C0D0F03BEC13F096
:102320001200000EC96F20AE06D01F6C201ED8B060
:10233000202A010EC96F22AE04D0216C221ED8B013
:10234000222A21502210D8B418D0010EC86F04D010
:10235000D89021362236C82B22AEFAD721501F5CE6
:1023600022502058D8A004D021501F5E2250205A5D
:10237000D89022322132C82FF1D7C951D8B404D015
:102380001F6C201ED8B0202A1FC01FF020C020F0D4
:102390001200000ED66EF294C4C001F0C5C002F067
:1023A000C6C003F0C7C004F0000E056E800E066EB6
:1023B0000C0E076E440E086E66EC09F001C080F04A
:1023C00002C081F003C082F004C083F080C001F03D
:1023D00081C002F082C003F083C004F080EC0FF0F3
:1023E0000150345C02503558D8A008D0000E356E2C
:1023F000000E346E010E0001BB6F1200344A352A04
:102400001200000ECA6F000EC96F21502210D8B4FE
:102410001CD0010EC86F04D0D89021362236C82BAC
:1024200022AEFAD7D890C937CA3721501F5C225044
:102430002058D8A005D021501F5E2250205AC981B3
:10244000D89022322132C82FEDD7C9C01FF0CAC0A0
:1024500020F0120014D020C0F6FF21C0F7FFF86A68
:10246000070EF76403D00800F55005D0F6CFE1FF62
:10247000F7CFE2FFE750FDEC13F0204A212A20C0FD
:10248000F6FF21C0F7FFF86A070EF76403D00800D3
:10249000F55005D0F6CFE1FFF7CFE2FFE750000996
:1024A000D8B41200D8D7200EF66E280EF76E000EA4
:1024B000F86E0900F5CFFEF00900F5CFFFF001EE50
:1024C00000F0A10EEE6AE806FDE100EE60F0680E95
:1024D000EE6AE806FDE100EE24F01D0EEE6AE80665
:1024E000FDE141904192000EF86E000118EF04F0FA
:1024F000A90EB56F010EB66FA6C1B7F1A7C1B8F1AD
:10250000000EBB6F000EBA6F000EC26F000EC16FDF
:10251000B70EA16F010EA26FA8C1A3F1B50EA46FF3
:10252000010EA56FFFEC12F0BA51A625D96EBB5172
:10253000A721DA6EDF6A120021502210D8B418D019
:10254000010E236E04D0D89021362236232A22AEE3
:10255000FAD721501F5C22502058D8A004D0215017
:102560001F5E2250205AD89022322132232EF1D7DA
:102570001FC01FF020C020F0120082A003D01F6AED
:102580001F2A01D01F6A82A202D0010E01D0000EC4
:10259000020DF3CF20F082A402D0010E01D0000E74
:1025A000040DF3CF21F082AA02D0010E01D0000E5B
:1025B000080DF350212420241F24120082A803D0E8
:1025C0001F6A1F2A01D01F6A80A202D0010E01D00B
:1025D000000E020DF3CF20F080A802D0010E01D032
:1025E000000E040DF3CF21F080AA02D0010E01D01D
:1025F000000E080DF350212420241F241200A3C133
:10260000F9F00DD0A1C1EBF0A2C1ECF0F90E000180
:10261000ED6FA4C1EEF0A5C1EFF08DEC0CF0F9C0A8
:10262000F6FF080EF76E0800F5500009D8A4EAD7A7
:10263000000E0101A26F000EA16F120086EC13F0D4
:1026400008EC14F0ADEC13F0000E0001D26F000E98
:10265000D36F800ED46F3F0ED56FEDEC13F0BDEC51
:1026600013F0E3EC13F070EC13F0CCEC13F0D08E1D
:10267000F28EF28C1200000ED36F000ED26F0BD0D0
:10268000D1C01FF0206ACFC021F0D0C022F07FEC73
:1026900010F0D24BD32BD251CD25D96ED351CE21B0
:1026A000DA6EDF50D16FD151D8B41200E9D7CBBF69
:1026B00005D0CB5110E1CA05D8B00DD0CAC0CCF0BE
:1026C000CBC0CDF0CC1FCD1FCC4BCD2BCCC0CAF096
:1026D000CDC0CBF01200CAC0CAF0CBC0CBF0120004
:1026E000C188C18AC150F00B0E09C16EC08EC050A6
:1026F000C70B3009C06EC050F80B0509C06EC294FC
:10270000C296C298C29AC280C282120093809392EB
:10271000938493969398938A9480948294846F86FA
:10272000948C948E92809282928492869288928ADD
:10273000929C12001F502102F3CFC8F0F4CFC9F0D1
:102740001F502202F350C92720502102F350C927FD
:10275000C8C01FF0C9C020F01200D59CD59AD596EC
:10276000D550F80B0209D56E000ED76E000ED66E4E
:10277000D58EF294F28AF1941200000ECA6ECA94B9
:10278000030ECA12CB68780ECA129E929D82CA842A
:102790009F92000ECC6E12003F0EC76E000EC66EEA
:1027A000C688C79EC79CC69EC680C692C694C6965B
:1027B0001200C282C2B2FED7C450216EC3501F6E37
:1027C00021C020F01200B8863F0EB06EAF68AC8416
:1027D000AC8AAB8E9F9A9D8A1200D2C0C4F0D3C03F
:1027E000C5F0D4C0C6F0D5C0C7F012001F6E1FC020
:1027F000C9FFC7A0FED7C95012001F6E9EA8FED702
:102800001FC0ADFF1200C968C7A0FED7C950120093
:102810008F0ED3166F866D9612000600419211003E
:042820009A191200EF
:020000040020DA
:08000000FFFFFFFFFFFFFFFF00
:020000040030CA
:0E000000000C191EFF8181FF0FC00FE00F40A2
:00000001FF
